:020000040800F2
:10000000500800209931000885300008873000082A
:1000100000000000000000000000000000000000E0
:10002000000000000000000000000000893000080F
:1000300000000000000000008B3000088D30000838
:1000400027110008C31D000847250008CB29000818
:100050001B2A00081F2A0008953000089F3000085E
:10006000732E0008B33000085B31000867310008C8
:10007000A9310008AB310008AD310008AF310008EC
:10008000B1310008B3310008B5310008B7310008BC
:10009000B9310008BB310008BD310008BF3100088C
:1000A000C1310008C3310008C5310008C73100085C
:1000B000C9310008CB310008CD310008F8B5040083
:1000C00001D10120F2BD82277F000025606A00284F
:1000D00004D16068B84203D0E56101E02561656143
:1000E000A56226005C367078002803D135702000A8
:1000F00000F09FFB0220707020680168402291434D
:100100000160E368E022D200F0200001934203D9AD
:100110000021834204D104E080214901934200D0B0
:10012000A562012263681F40BC46A76884231B02A6
:100130003B4067463B439C46277C02231F40634667
:100140001F43636913403B439C46A76953021F400A
:1001500063461F43BC46277F38233B4067463B43EB
:100160009C462023E75C80231F4063461F43BC4618
:10017000A76A53031F4063461F4323681F60A36998
:100180001B0C04273B409C462423E75C10231F40A4
:1001900063461F43BC463423E75C08231F40634685
:1001A0001F43E368184038430143206841602068DA
:1001B000C169754B0B40C361756072700020F2BD60
:1001C000FCB583B004000E0000274430007E0128F7
:1001D00001D10220D6E0150001202100443108762B
:1001E00000F058FB0290280021004431497E01298B
:1001F00001D00227C1E0002E00D0290000D1B8E0D4
:100200000321220044325176002122004432D16180
:10021000A663A587E58721644422A15222004432C7
:10022000518022004432D160220044329160A168A2
:1002300080221202914209D121680A6840239A4320
:100240000A6021680A681B0213430B602168402280
:100250000B68134002D10B681A430A6061680022E0
:10026000D2430192120C6B461A80049DE268474B00
:100270009A4234D3002901D001280BD1A06B008809
:100280002168C860A06B801CA063E08F6946098864
:100290004018E087029E0AE0A16B0988C160A06B4C
:1002A000801CA063E08F694609884018E087E08FD2
:1002B000002844D0206881688907EDD400F0EAFA6C
:1002C000801BA84208D301988542F0D00327012063
:1002D00021004431487650E0002DE8D1F6E70029AE
:1002E00001D001280BD1A06B007821680873A06BA6
:1002F000401CA063E08F694609884018E087029E91
:100300000AE0A16B09780173A06B401CA063E08F29
:10031000694609884018E087E08F00280FD02068E0
:1003200081688907EDD400F0B5FA801BA84203D399
:1003300001988542CAD1EFE7002DEDD1C6E729002B
:100340003200200000F02EFA002803D020202100E7
:100350004431C861A068002806D100902068C168B7
:10036000009180680090009820004430C169002905
:1003700001D0012701E00121417600202100443114
:100380000876380005B0F0BDFFF7FFFF0107000059
:10039000F2B584B0040017000120039000206946E4
:1003A000087020004430007E012801D1022011E1B4
:1003B0001D000126210044310E7600F06BFA0290F8
:1003C00020004430417E280001290BD0626882233E
:1003D0005B009A4204D1A268002A01D1042901D00D
:1003E0000220EAE00499002903D0002F01D02A005E
:1003F00002D168460670E7E0230044335A7E042A9F
:1004000001D005225A760022DA6127645D801D80C2
:10041000A163E587A5879A60DA6021686E4AE36880
:1004200093424B6804D3014D1D4003E0FFEFFFFFF3
:1004300035031D434D60216840230D681D4002D1E6
:100440000D682B430B606368002101910A99E568F0
:1004500095424ED3002B01D0012809D1A06B008812
:100460002268D060A06B801CA063E08F401EE087F4
:100470000A91039E029DE08F002804D120004430A1
:10048000408800284DD020685449826892070ED5D4
:10049000E28F002A0BD0002E09D0A26B1288C26016
:1004A000A06B801CA063E08F4018E087019E20684D
:1004B0008268D2070ED5220044325388002B09D01F
:1004C000C068236C1880206C801C20645088401801
:1004D0005080012600F0DEF9401B0A998842CAD3F9
:1004E00008460021C9438842C5D0032069460870E8
:1004F00066E0002B01D0012809D1A06B00782268AA
:100500001073A06B401CA063E08F401EE0870A912F
:10051000039E029DE08F002804D1200044304088D3
:10052000002836D020682D4A816889070ED5E18FD2
:1005300000290BD0002E09D0A16B09780173A06BA4
:10054000401CA063E08F8018E087019E2068012195
:1005500083680B400ED0230044335F88002F09D0FE
:10056000007B266C3070206C401C206458888018FA
:100570005880012600F08EF9401B0A9988420846EF
:1005800004D30021C9438842AFD1C3E70028C1D1B9
:10059000ABE70A992A00200000F004F9002806D0F1
:1005A000012069460870202021004431C8612000E4
:1005B0004430C069002803D001206946087003E078
:1005C0000120210044314876002021004431087682
:1005D0006846007805B0F0BD01070000FFFF00008D
:1005E000FEB582B004000A9D1E4600F053F9301A91
:1005F000471900F04FF9694909684901090D794324
:10060000009100250126019006E00098002800D105
:1006100000270098401E00902068806802990140E1
:100620000298814201D1012000E000206946097B47
:10063000884235D004980021C9438842ECD000F0AC
:1006400029F90199401AB84201D2002FDDD1206862
:100650004168E022914341606068822149008842FC
:100660000BD1A068F103884202D04909884204D125
:10067000206801684022914301607003A16A8142B1
:1006800008D121680A68464B13400B6021680A684C
:100690001043086020005C3046700570032000E0C5
:1006A000002005B0F0BDFCB585B007000E000C9C25
:1006B00000250020694608700699009100F0EAF8CC
:1006C0000099081A0019009000F0E4F839680C311C
:1006D000009A324B1B68232463431B0D5A4301923B
:1006E0003C000296059F009E0490039106E001984D
:1006F000002800D100260198401E019020688068E3
:1007000002990140B94245D00298C021C9008842EF
:1007100007D1002F05D10398007869460870684614
:10072000007806980021C9438842E7D000F0B2F86B
:100730000499401AB04201D2002ED8D120684168F5
:10074000E0229143416060688221490088420CD1D7
:10075000A06880210902884202D04909884204D158
:100760002068016840229143016080208001A16AD5
:10077000814208D121680A68094B13400B60216847
:100780000A681043086020005C3001214170057048
:10079000032000E0002007B0F0BD00006000002052
:1007A000FFDFFFFFF8B504000F00160020250096BC
:1007B0003B000022C0214901FFF775FF002812D13C
:1007C00000963B00002280212000FFF709FF00284F
:1007D00009D100963B000022C021C9002000FFF78C
:1007E00062FF002803D0206E054325660320F2BD7A
:1007F00080B52548254901608221490041600021DA
:100800008160E022D200C2600161416180229200D9
:1008100082612022C2610162416281620722C2625A
:1008200001634163FFF74AFC002801D000F016F98C
:1008300001BD10B586B00400142101A800F074F9C0
:100840002068124988421DD11148810CC2680A43B0
:10085000C260C268114000910099012102680A43F8
:1008600002600068014000910098C22001900220BF
:100870000290002003900490059001A9A020C005DB
:1008800000F05AF906B010BDE0020020003001402F
:100890003410024001484068704700BF4800002003
:1008A00080B500F0A5FB01BD10B5040000F034FCDC
:1008B0000023DB4382B221004E4800F06BFC10BDE8
:1008C00000000000F8B500F081FF00F099F800F09A
:1008D0009DFFFFF78DFF01F00DF800F01DFA0028D5
:1008E00002D000BF5EA000E062A0FFF7DDFFFA20AB
:1008F000800001F06FF80020C043FFF7D1FF6020B7
:1009000000F0DBFA3C4C260045368A2040002018D7
:10091000009025008935B427BF002CE07BA0FFF7AD
:10092000C3FF25E06BA0FFF7BFFF380001F052F8CE
:1009300070A0FFF7B9FF4520205C801D307080203B
:1009400070700820B07000980078F070012030714D
:10095000002070710320B071220044321821274812
:1009600001F024FA300000F066FA380001F032F8A5
:10097000380001F02FF8601C00F00AFA0028CDD0F2
:1009800041A0FFF791FFA0790006F1D4E07941285A
:100990002CD121002000883001F0A6F82878801D95
:1009A0002870E07868700820A870CD20205CE8707E
:1009B00060792871A079802101436971280000F0D5
:1009C0003AFA207900990870607A0006A17A090441
:1009D0000143E07A00020843217B01430098416013
:1009E0000098406800F004FB2DA09CE7032899D1F3
:1009F00031A098E74C0200209C0000202BA00000B2
:100A000018B593B03C2104A800F08EF86846002188
:100A10000022002300241EC08020800001F0D2F9B3
:100A200002200490FE3007900894402009900C9416
:100A300004A801F0EDF9002801D000F00FF807201C
:100A400000900194029403940021684601F0F6FBA3
:100A5000002801D000F002F814B010BD72B6FEE715
:100A6000636F6E6669677565207265757373690D6E
:100A70000A000000636F6E666967756520656368CC
:100A80006F7565650D0A00004D65737361676520BC
:100A90005246207265C3A77520210D0A0000000090
:100AA0006E65746964206D697320C3A0206A6F75D8
:100AB0007220210D0A00000052C3A9706F6E736589
:100AC0002052656164486F6C64696E6720210D0A6D
:100AD00000000000466F6E6374696F6E20636F6480
:100AE0006520706173207265636F6E6E75650D0AA7
:100AF00000000000456E766F6965206465206C61BA
:100B000020726571756574650D0A00004175637525
:100B10006E206D657373616765205246207265C3F0
:100B2000A7752E0D0A000000002200BF094202D066
:100B3000491E4254FCD17047FFB500220F23029397
:100B40002DE0052603E0654EB042FAD10426AE4002
:100B50002643009C2660624C2568DC4325404E6895
:100B6000F60200D51D435E4E3560756825404F681E
:100B7000BF0200D51D4375605A4D6D6825404E6813
:100B8000B60300D51D43574E756035682C404D683F
:100B9000ED0302D525001C002C433460521C0B6869
:100BA0001C00D4407AD0012595402B40F6D054004B
:100BB0000326A640F74301974E68B707BF0F012FE2
:100BC00003D0B607B60F022E0ED18668019F3740BC
:100BD000CE68A6403E4386604668AE434D68EF0649
:100BE000FF0F9740374347600D79AD07AD0F032DD9
:100BF00025D0C568019E2E408D68A5403543C5604F
:100C00000D79AD07AD0F022D19D1D508AD004519ED
:100C10002E6A039696001C2737406E463770039E57
:100C2000B446029F6E463678B7406646BE43B44629
:100C30000F696E463678B740664637432F620768BD
:100C40000326019D3D404F683740A7402F43076072
:100C50004C6835042540A1D0234C9508AD0064199B
:100C60000094009C2468D70018253D40029FAF40A7
:100C7000BC43A027FF05B84201D1002667E71B4F00
:100C8000B84201D1012662E7194FB84201D10226CC
:100C90005DE7184FB84200D055E758E7FFBD00693F
:100CA000084000D00120C0B27047002A01D0816105
:100CB00070478162704770B5040025000E4E3068A1
:100CC000284003D03560200001F0CEFB706828403A
:100CD00003D07560200001F0C8FB70BD001000500B
:100CE00000180240801802406018024000040050C2
:100CF00000080050000C00500C1802401CB5BA4C03
:100D00002070022000900123621C2100B748FFF7E9
:100D10003FFB607816BD000038B5002414A501E043
:100D2000142803D0E0B2295C00F080F9641CE0B222
:100D30002028F5DB162000F09CF912280ED1172090
:100D400000F097F9342809D1182000F092F95628BC
:100D500004D1192000F08DF9782801D0002032BD8F
:100D60002020B0494870002000F0A7F8012032BDD3
:100D7000308C07070CCF7F654A775F193888198256
:100D8000E3383807000012345678503C40FFEC003E
:100D9000F8B50600A34C6078694608700025A24F9C
:100DA00040213800FFF77BFF002814D0142000F00A
:100DB00060F9A178884200D20800A0700D2000F0F0
:100DC00058F9C00708D589210D2000F02FF92078A7
:100DD000401C207000E0A57080214900A020C005C3
:100DE000FFF75DFF002825D0202000F066F84021A5
:100DF0001F2000F01BF940213800FFF750FF0028AA
:100E000013D0002201213800FFF74FFFFF20FFF72A
:100E100075FF0400012201213800FFF746FFE8B208
:100E200034546D1CE8B24028E5DB6846007800F0D9
:100E300044F80120F2BD7CB506007A484078694646
:100E4000087035786D1C80242402E8B2412800DB4C
:100E500073BD202000F031F800211F2000F0E6F8DB
:100E600003E0307800F02CF9761C2800451E0006BF
:100E7000F7D1802000F021F8684606782500280088
:100E8000451E000407D0E109A020C005FFF707FFB9
:100E90000028F4D003E0300000F00FF873BDADB2CD
:100EA000611B60488268914200D30A008260416001
:100EB000FA20800000F025F9EDE7F8B5594C61788B
:100EC000FA277F00C826B600904D00287DD0202844
:100ED00046D040285BD0602822D0802800D081E016
:100EE000002906D020290BD0402910D060290ED02F
:100EF00014E03021002000F099F8280000F001F9FA
:100F00005021002000F092F8300000F0FAF8902113
:100F1000002000F08BF8380000F0F3F8802060E04B
:100F2000002906D020290BD0402910D080290ED0CE
:100F300014E03021002000F079F8280000F0E1F8FA
:100F40005021002000F072F8300000F0DAF8702133
:100F5000002000F06BF8380000F0D3F8602040E08B
:100F6000002906D040290CD060290AD0802908D059
:100F70000BE03021002000F059F8280000F0C1F803
:100F800003E03021002000F051F8202029E0002962
:100F900006D020290BD0602911D080290FD012E073
:100FA0003021002000F042F8280000F0AAF850217B
:100FB000002000F03BF8300000F0A3F803E05021DF
:100FC000002000F033F840200BE0202905D0402914
:100FD00003D0602901D0802902D1102100F026F829
:100FE00000206070F1BD000044040020E0020020F9
:100FF00010B50400210E162000F018F82102090E89
:10100000172000F013F82104090E182000F00EF844
:10101000E1B2192000F00AF810BD0248807870474C
:1010200000000000540000200004005073B5384E4A
:10103000002202213000FFF738FE684600784000A9
:101040003E21014068460170324D0024E4432300F4
:10105000012269462800FFF7B3F82300012201A905
:101060002800FFF7ADF8012202213000FFF71DFE36
:1010700073BD11B583B06846007B40003E2101403E
:10108000402008436946087301A80021017041709F
:101090001F4C002202212000FFF707FE0020C04362
:1010A0000090022301AA03A91A48FFF771F901224F
:1010B00002212000FFF7F9FD01A8407804B010BD1F
:1010C00038B50500124C002201212000FFF7EDFD8C
:1010D0002800FFF713FE012201212000FFF7E5FDA4
:1010E00031BD00BF00BF00BF00BF00BF00BF7047E1
:1010F00010B50400FFF7F5FF2000441E0004F9D1ED
:1011000010BD80B5FFF7F4FF01BD0000881300009B
:1011100000040050E0020020431C0178401C0942FA
:10112000FBD1C01A7047FEE738B5040001D1012099
:1011300032BD250084356868002803D1287020005E
:1011400000F009FC242068602068016801229143B6
:101150000160A06A002802D0200000F0D1F9200030
:1011600000F086F8012811D020684168084A0A403A
:101170004260206881682A2291438160206801686A
:1011800001220A430260200000F024FA32BD000070
:10119000FFB7FFFFF1B584B01F0006465436706BF1
:1011A000202861D10C000FD068460280002A0BD0A5
:1011B0000498806880214901884207D10498006919
:1011C000002803D1E00701D501204EE00025F5639A
:1011D00021207063FFF75EFB0100684600883080C5
:1011E0006846008870803A000498806880235B011C
:1011F000984209D104980069002805D12500049F70
:101200000192029104001AE02000F8E7217881623F
:10121000641C11E001980090029B0022802138009C
:1012200000F042FA00281BD13868002CEED1298842
:10123000C905C90D8162AD1C7088401E7080708820
:101240000028E7D13800029B01990091002240213B
:1012500000F02AFA002803D120207063002004E067
:1012600020207063032000E0022005B0F0BD0000E4
:10127000F8B5050000242B68186891490140A8685A
:1012800008432969014368690843E9690143196012
:1012900058688C490140E86808435860A8698A4941
:1012A0008B4205D089498B4202D00100286A08434D
:1012B0009968874A0A4010439860D86A0F2188438A
:1012C000696A0143D962834880210902824E102253
:1012D000824FBB422ED13668B607B60F30D0022EF1
:1012E00036D044D3032E31D0774EB34202D0774E5E
:1012F000B34242D1002A08D0022A0BD0042A00D1DE
:1013000092E0082A00D192E0CEE001F086F80028B1
:1013100000D1CAE072496A6A5200895A01F0BAF8EB
:101320006A6851008918884203D31103814200D3AF
:101330007FE0B9E06B4FBB420CD136680C273740D9
:1013400070D0042F13D0082F02D00C2F56D0CBE72B
:101350000222C9E79C4FBB420BD136683027374089
:1013600060D0102F03D0202FF2D0302FEEE70422D0
:10137000BAE7964FBB4229D10022954F5AA6EB6996
:101380008B426AD1002A06D0022A08D0042A5FD0F4
:10139000082A60D088E001F040F8002869D0696828
:1013A0000091696A4900715A01F074F8400000998F
:1013B00049084018009901F06DF801001039B94250
:1013C00072D207400007400F384365E0AD4FBB4283
:1013D000D2D0AD4FBB42CFD03B4FBB4210D13668CD
:1013E000C0273F0137401DD04E09B742BFD00E097C
:1013F000B742ADD0C0263601B74200D1082273E70C
:10140000324FBB42B9D13668C027BF00374009D040
:10141000CE09B742ABD08E09B74299D0C026B600EC
:10142000B74293E700225FE700F0B6FF6FE70800DE
:1014300070E7070E06025008002180197941002349
:1014400001F043F891494118914A91422CD223E08E
:1014500000F0A2FFA1E70800A1E7002A06D0022AB7
:1014600008D0042A1BD0082A1CD01DE000F0D5FFAC
:1014700000281AD069680091696A4900715A01F020
:1014800009F8009949084018009901F003F8010093
:101490001039B94208D280B22968C86005E000F06E
:1014A0007BFFE5E70800E5E701242800683001211B
:1014B000418001800021C16001612000F2BD000077
:1014C000F369FFCFFFCFFFFF0080004000840040A2
:1014D000FFF4FF110024F4005410024000380140D2
:1014E000E814000800440040010002000400060067
:1014F00008000A000C0010002000400080000001DD
:101500002821415C090706D501684A68614B1340F0
:10151000826B1A434A602821415CC90706D50168DD
:101520004A685D4B1340C26A1A434A602821415CF5
:10153000890706D501684A68584B1340026B1A4365
:101540004A602821415C490706D501684A68544B26
:101550001340426B1A434A602821415CC90606D5F4
:1015600001688A684F4B1340C26B1A438A60282176
:10157000415C890606D501688A68744B1340026C89
:101580001A438A602821415C490611D501684A68DE
:101590006F4B1340426C1A434A60426C80235B03DA
:1015A0009A4205D14A686B4B1340826C1A434A60D9
:1015B0002821415C090606D501684A68664B13403C
:1015C000C06C18434860704700480040004C004021
:1015D000F0FF0000FEB50600370084370024FC60F1
:1015E000FFF758F90190202530680068000717D5EB
:1015F0005A480090019B00222904300000F054F862
:1016000000280DD0EFF31080012181F3108831689C
:101610000A6880239A430A6080F310887D6026E080
:1016200030680068400725D54C480090019B002297
:101630006904300000F038F800281BD0EFF3108068
:10164000012181F3108831680A68454B13400B6013
:1016500080F31088EFF31080012181F31088316846
:101660008A6801239A438A6080F31088BD603C70C9
:101670000320FEBD7D60BD60F46634673C700020D1
:10168000FEBD000000500040003C014000FDFFFF97
:1016900000FD0F00FF7FFFFFFFFFFDFFFFFFFEFFCD
:1016A000FFFFFBFFFFEFFFFFFEB580273F0108258F
:1016B0000026040001916846027002932068C06908
:1016C000019901400198814201D1012000E00020F0
:1016D00069460978884236D108980021C943884272
:1016E000ECD0FFF7D7F80299401A0899814201D34C
:1016F000002901D10320FEBD206800684007DDD528
:1017000001988028DAD04028D8D02068C0692840C5
:10171000206803D1C0693840D0D009E005622000BC
:1017200000F020F820008430C56006700120FEBD66
:1017300020680762200000F015F820008430202186
:10174000C1600670D6E70020FEBD0000FFDFFFFF8E
:10175000FFFFEFFFFFFF9FFFFFFFF7FFFFFFFF010F
:10176000DFFEFFFF10B5EFF31081012282F3108836
:1017700002681368134C1C40146081F31088EFF367
:101780001081012282F31088026893680E4C1C407D
:10179000946081F31088C16E01290BD1EFF31081A1
:1017A000012282F31088026813681024A343136097
:1017B00081F3108820218C2281500021C16641676D
:1017C00010BD0000DFFEFFFFFEFFFFEF10B500249D
:1017D0000B480168820D0A430260002000F0B4FE4D
:1017E000002801D0012401E000F0D4FE200010BD4B
:1017F00004490A68044B134018430860704700000E
:101800000020024000000140FFF9FFFFF8B586B05C
:1018100014216846FFF788F90421334802680A4317
:1018200002600268114005910599016820220A436F
:101830000260016820221140059105990126016886
:101840003143016001683140059105990227016823
:101850003943016000683840059005980022202136
:10186000A020C005FFF721FA002203211F48FFF73F
:101870001CFA74030094882040030190002502950F
:1018800069461B48FFF758F9202000900196029501
:1018900003976946A020C005FFF74EF9032000908A
:1018A00001960295039569461048FFF745F94020D7
:1018B00000900195029569460C48FFF73DF96009D3
:1018C0000090019502956946A020C005FFF734F904
:1018D0000094842080030190029569460448FFF734
:1018E0002BF907B0F0BD00BF3410024000040050D7
:1018F0000008005010B5344C34482060E12040020C
:1019000060600020A060E06020610C216161A06146
:10191000E06120626062A0622000FFF705FC002801
:1019200001D0FFF79BF80021200000F06AFE00289C
:1019300001D0FFF793F80021200000F07BFE002883
:1019400001D0FFF78BF8200000F03EFE002801D008
:10195000FFF784F810BD30B599B00400142101A838
:10196000FFF7E2F84C2106A8FFF7DEF820681749D8
:10197000884226D1022406940025089506A800F086
:10198000AFFE002801D0FFF769F8114821048268F2
:101990000A43826082681140009100990121026827
:1019A0000A43026000680840009000980C200190F3
:1019B000029403950495059101A9A020C005FFF7A5
:1019C000BBF819B030BD00004C02002000440040BC
:1019D0003410024038B50400FEF75CFF050000201B
:1019E000C043844202D0044800782418FEF752FF16
:1019F000401BA042FAD331BD4800002050B504007E
:101A00000A2100F033FD060120000A2100F02EFD1E
:101A10007018C0B250BD30480178FA220A40042143
:101A200011430170FA20C000C8494880704780B552
:101A30002A482B498A7A0270CA7A42700A7B8270DD
:101A40000A78931F022B00D90522C270C04A12885F
:101A50000271120A42712A221031801D00F0A8FF83
:101A600001BD80B51E481D490A7882724A78C2724B
:101A70008A780273CA78931F022B00D9052202705C
:101A80004A7912020B79D218B14B1A802A22891D89
:101A9000103000F08DFF01BD80B5FFF7E2FF0E486A
:101AA000017840220A4302700E480178C0220A439E
:101AB00002700120A749087001BD00200021A64A3C
:101AC0000B06DB0DD3185B88C018491CCBB2482B22
:101AD000F6DB80B2704700003E040020C8030020FF
:101AE0006801002046040020F8B586B004000D000F
:101AF0000027E8790126032800D1E5E0172805D062
:101B0000412874D0422800D1C3E018E1E97A059158
:101B1000E97B0191297C059A002A04D01D2A00DB6B
:101B2000DDE0019A002A00D1D9E0192A01DC490838
:101B3000914200D0D3E0287B0002697B40180490DA
:101B40004000864F0499864A91420CDA85490391F8
:101B50001A316A4611807D4908188349401802905D
:101B6000FFF765FF06E0039780496A4611808049C8
:101B70000818029004980399884228DB6846008878
:101B80000499019A8918491E884220DB52002900D5
:101B90001131029800F00CFFFFF77EFF287A000257
:101BA000697A401873494118182907D203976F4979
:101BB0006A4611806E494200891802910399884251
:101BC00005DB69460988059A8018401E814200DAC3
:101BD000AFE0E879E071059842002272D2B2029932
:101BE0002000093000F0E4FE207A401C6AE0287AE8
:101BF000042800D09DE06048E978C17129794170DE
:101C0000042229000931801C00F0D2FE00F0DEFE23
:101C1000E879E071FFF751FF042558490988401819
:101C20005749884219D10320207256480078FFF79F
:101C3000E5FE607254480078FFF7E0FEA07253485A
:101C40000078FFF7DBFEE07204275148007810218E
:101C500001434F4801704F4805E04D48017810227C
:101C60000A430270C8203949488020000830C65510
:101C70007F1C272021000831C8557F1C002021002F
:101C80000831C8557F1C20000830C5557F1C67707F
:101C900059E0297A002952D0FFF7BDFE687A3E4A02
:101CA000D0842A490870E879E071A879A0713820B9
:101CB0002072FFF7B2F90200382120000930FEF748
:101CC00035FF392060703EE0297A09026A7A8F1860
:101CD000E97A4A000092002901D0192903DB8030FB
:101CE000E071032029E02D48874222DB78182C4937
:101CF00088421EDA2272009AD2B217487900401840
:101D0000284941182000093000F052FEE879E071BE
:101D10000098401C607024480178204A974201D105
:101D2000042203E0313297420DD110220A4302709F
:101D300009E0E8798030E0710220207202E0803012
:101D4000E0712672667007B0F0BD00008C030020C1
:101D50003C0400204A040020B801002054A10000E7
:101D60005B9C0000409C000084C7FEFF6BA100004C
:101D700020C1FE1FAC5EFFFF68010020420400206E
:101D8000FFFF000047040020480400204904002011
:101D90003E04002070170000F80300201DA2000080
:101DA00067A20000C6BBFEFF460400200323D371D8
:101DB000030A13725072080A9072D1720420507094
:101DC0007047FEE710B50E4C21680E4A0A400243E8
:101DD0002260610D884210D10B48006806214843FB
:101DE0000A4900F057FB401C00E0401E61694905AC
:101DF00003D50028F9D1032010BD002010BD00003C
:101E000000700040FFF9FFFF6000002040420F001B
:101E1000FEB507001BD0B64C3878C00719D5A168AD
:101E200038200840E1688025AD02102808D18807D5
:101E3000800F032806D078686908884234D13BE0D7
:101E40000828F8D12068054003D07868002800D120
:101E5000E5E13878800779D5A16838200840E16845
:101E6000A44AA54E10284CD18907890F02294AD0CF
:101E7000F8680028206800D193E0024038691043D8
:101E800020602068A10D01432160FEF703FD3D00A5
:101E900007002068400500D57BE0FEF7FBFCC01B77
:101EA0000328F6D30320FEBDA022D2029042206870
:101EB00005D18A00024322602068014305E0B84949
:101EC000014021602068B7490140216078680028FE
:101ED0000BD0FEF7DFFC060020682840B9D1FEF7E2
:101EE000D9FC801B6528F7D3DCE7FEF7D3FC06009E
:101EF00020682840ADD0FEF7CDFC801B6528F7D3C5
:101F0000D0E70028B4D12168490502D5F968002935
:101F10003ED061680E407969090231436160002852
:101F20000ED1206802403869104320609E4801218C
:101F300022689204520F914000F0ACFAB94908604F
:101F4000B948006800F000FB002821D1022638784B
:101F500000070AD5A06838210140182930D1206E29
:101F6000304002D0B869002812D03878400700D439
:101F7000A6E000200190A06838210140202941D12D
:101F8000E06D064000D19BE0B868002800D097E0E3
:101F900045E16068064068690002304360602F00D8
:101FA000D4E7A24901402160FEF774FC05002068D7
:101FB0004005CBD5FEF76EFC401B0328F7D371E735
:101FC000B8690028206E0ED0012101432166FEF77A
:101FD00061FC0500206E3040C7D1FEF75BFC401B62
:101FE0000328F7D35EE7012188432066FEF752FC01
:101FF0000500206E3040B8D0FEF74CFC401B032893
:10200000F7D34FE7F006E16B014008D1E16B0143E4
:10201000E163E16B08400090009801200190844E3C
:102020003068C00512D4A00D0090306800990143BB
:102030003160FEF72FFC050030680099014005D1A2
:10204000FEF728FC401B0328F6D32BE7B9680120D4
:10205000012905D0052906D1E16D04220A43E26574
:10206000E16D084306E0E06D01218843E065E06D25
:1020700004218843E0650226B86800280CD0FEF7EA
:1020800009FC0500E06D304013D1FEF703FC401B56
:1020900068498842F6D305E7FEF7FCFB0500E06DD2
:1020A000304006D0FEF7F6FB401B62498842F6D36B
:1020B000F8E60198002803D0E06B5F490140E16336
:1020C0003878800629D580263604F86900282068EB
:1020D00014D0710801432160FEF7DCFB0500206885
:1020E00030401AD1FEF7D6FB401B0328F7D3D9E6C0
:1020F00000100240FFC7FFFFFF80FFFFA349014020
:102100002160FEF7C7FB05002068304005D0FEF7D0
:10211000C1FB401B0328F7D3C4E6386A002857D018
:10212000A16838220A40102A54D08026B604984963
:10213000022820683AD101402160FEF7ABFB3D0048
:1021400007002068304005D0FEF7A4FBC01B032821
:10215000F7D3A7E6E0688F490140686A0843A96A97
:102160000143E86A00020843296B0143686B084396
:10217000A96B0143E1602068710801432160E068B8
:10218000F1000143E160FEF785FB05002068304067
:102190001ED1FEF77FFB401B0328F7D382E600BF6A
:1021A000FFFFFEFFFFFFFBFF0024F4000140216062
:1021B000FEF770FB05002068304005D0FEF76AFB93
:1021C000401B0328F7D36DE6E0689B490140E160BE
:1021D0000020FEBD012822D0E0688107890F7A6ABD
:1021E00091421CD170210140BA6A914217D1FE215F
:1021F000C9010140FA6A1202914210D1F821890303
:1022000001403A6B91420AD1E021090501407A6B05
:10221000914204D1400F4007B96B8842D8D00120C9
:10222000FEBD00BF6000002050000020FFFEFFFF49
:102230000070004089130000FFFFFFEFF8B50700B2
:1022400066D000917D4800684007400F884218D250
:102250007A4E306807218843009901433160FEF7C8
:1022600019FB009C050030684007400FA04207D0D2
:10227000FEF710FB401B72498842F4D30320F2BDE5
:1022800000943968704D022001420CD0490704D5F2
:10229000A968E022D2010A43AA60A968694A0A40F3
:1022A000B9681143A9600726F6433978C90732D5C2
:1022B0007968012918D12868800329D5A868304099
:1022C0000143A960FEF7E6FA3C000700A868382140
:1022D00001406068C00081421CD0FEF7DBFAC01BE1
:1022E00057498842F2D3C9E7022902D12868800100
:1022F00003E0002903D128684005DFD408E0032962
:1023000003D12A6E1040D9D102E0EA6D1040D5D138
:102310000120F2BD27000098484909684907490F84
:10232000884217D245480068064000983043434928
:102330000860FEF7AFFA009C0600404800684007BE
:10234000400FA04206D0FEF7A5FA801B3C49884208
:10235000F3D393E73878400705D5A8683B49014097
:10236000F8680843A86000F017F83949AA68120510
:10237000120F9200895CC906C90EC8403549086031
:102380003548006800F0E0F8F2BD0000FFFFBFFF35
:10239000FFFFFFFE8C80C11130B5072130482A4C69
:1023A0003823A2681A4006D123680122DB0A1940AB
:1023B0008A4011001EE04208A5681D40082D01D189
:1023C000100030BDA5681D40102D16D1E368E568EA
:1023D0002D092940491C7F259B079B0F032B00D10A
:1023E000100000F057F8E168090A0D406843E16801
:1023F000490F491C00F04EF830BDA0681840202855
:1024000002D18020000230BDA0680340182B02D109
:10241000FA20C00130BD002030BD104801680D48D1
:102420000068104A4904490F8900515CC906C90E69
:10243000C840704700000000FCFFFEEE0020024094
:1024400089130000FFF0FFFF00100240FF8FFFFF25
:10245000D82F000860000020500000200810024023
:102460000024F4001031000870477047CA0F00D0F4
:10247000494203105A400DD004B500D3404200F049
:1024800009F8009AD20701D34942124200D54042CE
:1024900004BD0000094214D088420FD30122030C6E
:1024A00001D100041204002300185B418B4200D3C9
:1024B0005B1A5241F8D31900100070470100002048
:1024C000704708B500F0A8FA08BD12422DD0994215
:1024D00031D970B500251B4209D00C00002112E053
:1024E0001100FFF7D7FF0A000021002370BD094249
:1024F000F6D00024012649186441944200D3A41A5E
:102500007641F8D33100012601E0764109D2001866
:1025100064416D41A41A9D41F7D2A4185D41B619DA
:10252000F5D3300022002B0070BD1B42CFD108B57F
:1025300000F074FA08BD01D19042CAD202000B002B
:10254000002100207047FEE770B5060000240F4D03
:102550002978002916D0FA208000FFF79BFF0100A0
:102560000B480068FFF796FF00F07CFA002809D1BD
:10257000042E07D2002231000020C04300F06DFA83
:10258000AE6000E00124200070BD00BF48000020C4
:102590006000002080B50B48012142680A43426078
:1025A00042681140009100998021490502680A4360
:1025B00002600068014000910098C020C000FFF751
:1025C00017F901BD3C10024030B5010084310A7892
:1025D000012A01D1022030BD01220A7024224A6062
:1025E0000268136814680125AC4314600022426637
:1025F000224C1C4000680460202048600A700020C3
:1026000030BD70B50400250084352878012801D13B
:10261000022070BD012028702420686020680668B0
:10262000026801239A43026020688268D200D208BF
:10263000114317E070B5040025008435287801287F
:1026400001D1022070BD012028702420686020681C
:102650000668026801239A43026020688268084B7A
:10266000134019438160200000F00CF820680660D8
:10267000202068600020287070BD0000FFFFFFDF91
:10268000FFFFFFF1F8B50400606E002802D10120C1
:10269000012517E0206881680901490F00918068D1
:1026A000410F00BF0CA600BF09A7785CC000715C99
:1026B000FFF7DCFE05000098385CC0000099715CF3
:1026C000FFF7D4FE210068314D800880F1BD000085
:1026D00001010103070100000804020408010101CF
:1026E000F8B584B0040000206A461070964D0221AF
:1026F00003912168890357D5019080204005296BFB
:10270000014008D1296B01432963296B08400190DE
:10271000019801200190A80D02908C4F3868029911
:1027200001433960FEF7B6F80600386802990140A7
:1027300008D1FEF7AFF8801B0328F6D303206946C3
:1027400008702AE0296DC02080000840804F0028D2
:102750000ED0216C88420BD0286D3840296D802224
:1027600052020A432A65296D7A4A0A402A65286579
:10277000C0070DD5FEF78EF80600286D03990140BD
:1027800006D1FEF787F8801B73498842F5D3D5E759
:10279000286D0740206C384328650198002803D035
:1027A000286B6E49014029632078C00705D5A86CC5
:1027B0000321884361680143A964206803990140AB
:1027C00005D0A86C0C218843A1680143A964207836
:1027D000400705D5A86C30218843E1680143A9640E
:1027E0002078C00605D5A86C5D49014020690843E2
:1027F000A86457482168C90404D5A96C01406269DE
:102800000A43AA642168890505D5A96C554A0A407E
:10281000A16A1143A9642168490505D5A96C524AEA
:102820000A40E16A1143A96450492278920604D50E
:10283000AA6C0A40A3691343AB642278520605D5FB
:10284000AA6C4B4B1340E2691A43AA6422685204F3
:102850000ED5AA6C92009208236B1343AB64226BD3
:102860008023DB059A4203D12A689B0B13432B601C
:102870002268120305D5AA6C40239A43636B134365
:10288000AB648022520493082668B6020BD5AE6C66
:10289000384F3740A66B3E43AE64A66B9E4202D1D2
:1028A0002E6816432E60266833400BD0AB6C324E38
:1028B0001E40E36B3343AB64E36B934202D12B685E
:1028C00013432B60130A266836050BD5EE6C0327DD
:1028D000BE43276A3743EF64266A012E02D12E6871
:1028E0001E432E602668B6040BD5EE6C0C27BE4343
:1028F000676A3743EF64666A042E02D12E68334359
:102900002B60236813400BD0EB6C1940636C0B43B6
:10291000EB64616CD30A994202D1296811432960A2
:10292000216889010BD5E96C0840A16C0143E96479
:10293000A06C110C884202D1286802432A606846C4
:10294000007805B0F0BD00000C100240007000409F
:10295000FFFCFFFFFFFFFEFF89130000FFFFFFEFFB
:10296000FFF3FFFFFFFFF3FFFFFFCFFFFFCFFFFFEF
:10297000FF3FFFFFFFFFBFFFFFFFFFFE70B4103AF6
:1029800003D378C9103A78C0FBD2530701D318C9D2
:1029900018C001D508C908C0D20704D30B8803802A
:1029A000891C801C002A01D50B78037070BC70470D
:1029B0008B0701D18307E1D0124205D00B78491C67
:1029C0000370401C521EF9D17047FEE7F8B50E4F58
:1029D00046220F493800FFF7EBFF00240D4D0B4E48
:1029E00000F08FF86000395A305A00F02BF9287047
:1029F00000F097F82878002802D06878401C6870AA
:102A0000641C232CECDBF1BD4403002000000020FB
:102A100068010020400400207047FEE77047FEE791
:102A200010B5C30018221A40FF249440E3438907DD
:102A3000090E9140020004D41448920892008018B4
:102A400006E0134A0007000F0838800880001018BD
:102A5000026813401943016010BD80B5FFF7E0FF25
:102A600001BD000010B5401E80214904884201D3F9
:102A7000012010BD074C606003210020C043FFF718
:102A8000CFFF0020A0600721216010BD00E400E01E
:102A90001CED00E010E000E008B4024B9C4608BCCE
:102AA0006047C04665000020F1B50F0014001D000E
:102AB00042480078012801D10220F2BD01203F499F
:102AC000087000264E60FA20800000F03DF80100FA
:102AD00014D1380022002B000099012902D100F006
:102AE00061F802E01100FFF7D7FFFA20800000F044
:102AF0002BF833490A68009B9A430A602F490E70ED
:102B0000F2BD0020314980221206CB68134007D065
:102B10002F4B0B602F4B0B60C9680A4000D001207F
:102B2000704710B50124FA20800000F00DF88020D5
:102B30000006FFE722490A6802430A600968084064
:102B400000D00024200010BDF8B50400FDF7A2FE5F
:102B50000027FF431C4E05003068C0218902014058
:102B600008D0BC42F8D0FDF795FE401BA042F3D33D
:102B70000320F2BD3168134808401749316000282E
:102B800003D00E4948600120F2BD3068400307D5EC
:102B9000BC42FAD0FDF77EFE401BA042F5D3E7E72A
:102BA0000020F2BD30B506490C68012525430D60B3
:102BB0000260BFF36F8F001D036030BD2004002052
:102BC00014200240FAC300001020024008200240F6
:102BD00023016745AB89EFCDFBC30800F8B584B08E
:102BE00004000E00FF27FF00002000F038F800214D
:102BF000C943884202D1062005B0F0BD69460C8168
:102C000003900398C01903C84CA20CCA994201D181
:102C100090420DD000221B0C0B40009201936A469B
:102C200013890022009C019D9D4201D1944203D052
:102C3000083F082FE5D203E0080C30800020DBE7D6
:102C40000720D9E738B505000C0000F049F80C283A
:102C500004D100222100280000F074F832BDF0B544
:102C600004007248C0C872480CC808386F49012C6B
:102C700014D1002B07D1002A05D1184A9F422BD12D
:102C8000964229D11DE0002F22D1002E20D1134CD5
:102C90000025AB4215D1A2421ED012E0250008D17A
:102CA000002F01D1002E0CD0002B11D1002A13D0FF
:102CB0000EE0022C0CD121A430CCAF4203D1A642AD
:102CC00001D10800F0BDAB4205D1A24203D1F0BD55
:102CD0000020C043F0BD2046F0BD0000AAAAAAAA69
:102CE000FEB505000C0008260120FFF7B8FF002103
:102CF000C943884201D10620FEBD0700B81903C8A8
:102D00000EA20CCA994201D1904205D0083680200B
:102D100000018642F2D30FE0019600972A002004BA
:102D2000024313000022019979180120FFF7BCFE2D
:102D3000002802D00520FEBD0C20FEBDFFFFFFFFD6
:102D4000FFFFFFFFF8B584B007000C00150000205E
:102D50000390FFF784FF02900026F643B04209D0AB
:102D6000280001D1022000E00120FFF778FF019048
:102D7000B04201D1062056E0002D07D12D4A002394
:102D800001460120FFF790FE00284BD121003800BA
:102D9000FFF7A6FF002845D1039C2748610045188E
:102DA0002888B8420BD06946FFF718FF002806D1E3
:102DB000684601882888FFF793FF002832D1641CF9
:102DC000232CEAD31D480068C021890408420DD095
:102DD000014080204004814203D1194800688002EC
:102DE00004D5184800684002174A03E015480068F7
:102DF0008002164A02400298F82109064018110084
:102E0000FFF748FBC80A042100F022F8002801D08F
:102E1000032008E00022002301990120FFF744FE6F
:102E2000002800D0052005B0F0BD000000F001082A
:102E300000F80108AAAAAAAA000000200075FF1F36
:102E400020200240E075FF1F00FE070000FC0F007D
:102E500000B585B0022201920122049203900291F2
:102E6000694601A800F006F8002800D0032005B04C
:102E700000BDFEE7F8B504000F00204800780128E7
:102E800001D10220F2BD01201C49087000254D60CF
:102E9000FA208000FFF758FE01002CD12168042998
:102EA0000CD11748016862680A4380214902114326
:102EB0000160FA208000FFF747FE1CE00021C943B3
:102EC0003960A16826000C0000E0641CB168F2685B
:102ED00089188C420AD22100706800F013F8FA2099
:102EE0008000FFF731FE0100EFD03C6004490A6822
:102EF00002239A430A6001490D70F2BD20040020AC
:102F00001420024010B5094A1468094B23400428D4
:102F100003D080208001184301E006481840C90012
:102F2000014305480843106010BD00001420024012
:102F300007E0FFFFFFDFFFFF0200010001000200CA
:102F400003000400050006000700080009000A004D
:102F50000B000C000D000E000F00100011001200FD
:102F600013001400150016001700180019001A00AD
:102F70001B001C001D001E001F002000210022005D
:102F80002300000001000000000000000400000019
:102F90000020000000000000000000000024F400F9
:102FA00030B50C4A53688024E4021C435460EFF3AC
:102FB000108372B640240D680560091D001D641E53
:102FC000F9D11068C02189020140FAD183F3108839
:102FD00030BD00BF102002400000000000000000D3
:102FE00000000000000000000000000000000000E1
:102FF00000000000000000000100000002000000CE
:1030000003000000040000000600000007000000AC
:10301000080000000900000070B40121002213E044
:103020000368001D0B4202D04D46EB185B1E1A6070
:103030001B1D241F042CFAD21D00A60701D51A80DF
:10304000AD1C0C4000D02A700468001D002CE7D194
:1030500070BC704730B401210EE00368C3184468A7
:1030600008300C4202D04D462C19641E1D682560A4
:103070001B1D241D121FF9D10268001D002AECD16E
:1030800030BC7047FEE7FEE77047704780B500F040
:1030900011F801BD80B50420FDF70DFE01BD80B51E
:1030A00080208001FDF707FE80204000FDF703FE31
:1030B00001BDFEE702484168027889184160704707
:1030C0004800002010B5074979441831064C7C446B
:1030D000163404E0081D0A68891888470100A142D7
:1030E000F8D110BD08000000280000002DFFFFFFF0
:1030F000B00300009C0000200000000059FFFFFF0B
:103100009C00000038FEFFFF0000002000000000CF
:1031100000000000000000000000000000000000AF
:103120000100000002000000030000000400000095
:1031300000F00DF8002801D0FFF7C4FF00BF00BF6A
:10314000002000BF00BFFDF7BDFB00F002F801202A
:10315000704780B500F002F801BDFEE7074638462B
:1031600000F002F8FBE7FEE780B500BF00BF024AAF
:1031700011001820ABBEFBE72600020005480146FF
:1031800003B4684680F3098800BF00BF00BF00BFDA
:10319000FFF7CEFFA5EDF5FE014880470148004747
:1031A000D13100087D310008FEE7FEE7FEE7FEE7CB
:1031B000FEE7FEE7FEE7FEE7FEE7FEE7FEE7FEE7E7
:1031C000FEE7FEE7FEE7FEE7FEE7FEE7FEE70000BC
:0231D000704746
:040000050800317D41
:00000001FF
