:020000040800F2
:1000000008050020FD1B0008891A00088B1A00084B
:1000100000000000000000000000000000000000E0
:100020000000000000000000000000008D1A000821
:1000300000000000000000008F1A0008911A00085C
:10004000830F0008F7150008FB1500080B160008C1
:10005000BF1B0008CB1B0008991A0008A31A000850
:100060001D1C00081F1C0008211C0008231C000880
:10007000251C0008271C0008291C00082B1C000850
:100080002D1C00082F1C0008311C0008331C000820
:10009000351C0008371C0008391C00083B1C0008F0
:1000A0003D1C00083F1C0008411C0008431C0008C0
:1000B000451C0008471C0008491C000838B504000E
:1000C00001D1012032BD250084356868002803D1A4
:1000D0002870200000F075FB24206860206801680B
:1000E000012291430160A06A002802D0200000F0A4
:1000F000D1F9200000F086F8012811D0206841686D
:10010000084A0A404260206881682A22914381603F
:100110002068016801220A430260200000F024FAEE
:1001200032BD0000FFB7FFFFF1B584B01F000646E7
:100130005436706B202861D10C000FD068460280C5
:10014000002A0BD00498806880214901884207D199
:1001500004980069002803D1E00701D501204EE092
:100160000025F5632120706300F06CFB01006846F8
:10017000008830806846008870803A000498806863
:1001800080235B01984209D104980069002805D1B9
:100190002500049F0192029104001AE02000F8E774
:1001A00021788162641C11E001980090029B00227A
:1001B0008021380000F042FA00281BD13868002C5A
:1001C000EED12988C905C90D8162AD1C7088401E19
:1001D000708070880028E7D13800029B0199009157
:1001E0000022402100F02AFA002803D12020706369
:1001F000002004E020207063032000E0022005B00E
:10020000F0BD0000F8B5050000242B68186891497E
:100210000140A86808432969014368690843E969FE
:100220000143196058688C490140E86808435860E8
:10023000A8698A498B4205D089498B4202D00100C6
:10024000286A08439968874A0A4010439860D86A28
:100250000F218843696A0143D962834880210902DA
:10026000824E1022824FBB422ED13668B607B60F9F
:1002700030D0022E36D044D3032E31D0774EB34245
:1002800002D0774EB34242D1002A08D0022A0BD0C6
:10029000042A00D192E0082A00D192E0CEE000F0DA
:1002A000DCFD002800D1CAE072496A6A5200895A0E
:1002B00000F00EFE6A6851008918884203D31103CA
:1002C000814200D37FE0B9E06B4FBB420CD136686E
:1002D0000C27374070D0042F13D0082F02D00C2FDA
:1002E00056D0CBE70222C9E79C4FBB420BD1366800
:1002F0003027374060D0102F03D0202FF2D0302F7E
:10030000EEE70422BAE7964FBB4229D10022954F6F
:100310005AA6EB698B426AD1002A06D0022A08D07D
:10032000042A5FD0082A60D088E000F096FD0028FB
:1003300069D069680091696A4900715A00F0C8FD86
:100340004000009949084018009900F0C1FD0100E3
:100350001039B94272D207400007400F384365E0B8
:10036000AD4FBB42D2D0AD4FBB42CFD03B4FBB42D3
:1003700010D13668C0273F0137401DD04E09B74223
:10038000BFD00E09B742ADD0C0263601B74200D16A
:10039000082273E7324FBB42B9D13668C027BF008D
:1003A000374009D0CE09B742ABD08E09B74299D0B9
:1003B000C026B600B74293E700225FE700F00CFDCD
:1003C0006FE7080070E7070E060250080021801949
:1003D0007941002300F097FD91494118914A9142DB
:1003E0002CD223E000F0F8FCA1E70800A1E7002AE6
:1003F00006D0022A08D0042A1BD0082A1CD01DE0EF
:1004000000F02BFD00281AD069680091696A490044
:10041000715A00F05DFD009949084018009900F0FC
:1004200057FD01001039B94208D280B22968C8606E
:1004300005E000F0D1FCE5E70800E5E7012428002D
:1004400068300121418001800021C16001612000EC
:10045000F2BD0000F369FFCFFFCFFFFF0080004037
:1004600000840040FFF4FF110024F4005410024007
:10047000003801407C0400080044004001000200F4
:100480000400060008000A000C00100020004000D4
:10049000800000012821415C090706D501684A68EF
:1004A000614B1340826B1A434A602821415CC907A3
:1004B00006D501684A685D4B1340C26A1A434A6018
:1004C0002821415C890706D501684A68584B1340CA
:1004D000026B1A434A602821415C490706D501682E
:1004E0004A68544B1340426B1A434A602821415CCE
:1004F000C90606D501688A684F4B1340C26B1A4380
:100500008A602821415C890606D501688A68744B97
:100510001340026C1A438A602821415C490611D5B8
:1005200001684A686F4B1340426C1A434A60426C40
:1005300080235B039A4205D14A686B4B1340826C5F
:100540001A434A602821415C090606D501684A68B9
:10055000664B1340C06C1843486070470048004029
:10056000004C0040F0FF0000FEB506003700843765
:100570000024FC6000F066F90190202530680068D6
:10058000000717D55A480090019B0022290430002B
:1005900000F054F800280DD0EFF31080012181F312
:1005A000108831680A6880239A430A6080F31088B3
:1005B0007D6026E030680068400725D54C480090F3
:1005C000019B00226904300000F038F800281BD09D
:1005D000EFF31080012181F3108831680A68454BE0
:1005E00013400B6080F31088EFF31080012181F33A
:1005F000108831688A6801239A438A6080F31088E2
:10060000BD603C700320FEBD7D60BD60F466346754
:100610003C700020FEBD000000500040003C014046
:1006200000FDFFFF00FD0F00FF7FFFFFFFFFFDFF4D
:10063000FFFFFEFFFFFFFBFFFFEFFFFFFEB5802781
:100640003F010825002604000191684602700293CC
:100650002068C069019901400198814201D10120BF
:1006600000E0002069460978884236D108980021C8
:10067000C9438842ECD000F0E5F80299401A089985
:10068000814201D3002901D10320FEBD206800680A
:100690004007DDD501988028DAD04028D8D02068DE
:1006A000C0692840206803D1C0693840D0D009E033
:1006B0000562200000F020F820008430C56006703C
:1006C0000120FEBD20680762200000F015F8200020
:1006D00084302021C1600670D6E70020FEBD0000F6
:1006E000FFDFFFFFFFFFEFFFFFFF9FFFFFFFF7FFB2
:1006F000FFFFFF01DFFEFFFF10B5EFF310810122C6
:1007000082F3108802681368134C1C40146081F354
:100710001088EFF31081012282F310880268936839
:100720000E4C1C40946081F31088C16E01290BD1DE
:10073000EFF31081012282F31088026813681024FD
:10074000A343136081F3108820218C228150002163
:10075000C166416710BD0000DFFEFFFFFEFFFFEF37
:1007600010B5354C35482060E12040026060002023
:10077000A060E06020610C216161A061E061206205
:100780006062A0622000FFF799FC002801D000F011
:100790004BFC0021200000F066FC002801D000F096
:1007A00043FC0021200000F077FC002801D000F07D
:1007B0003BFC200000F03AFC002801D000F034FCA3
:1007C00010BD30B599B004001421002201A800F03A
:1007D000BBFC4C21002206A800F0B6FC206817499B
:1007E000884226D1022406940025089506A800F028
:1007F000B1FC002801D000F017FC114821048268E8
:100800000A438260826811400091009901210268C8
:100810000A43026000680840009000980C20019094
:10082000029403950495059101A9A020C00500F04C
:10083000DFFD19B030BD0000100000200044004072
:100840003410024001484068704700BF000000209B
:10085000FEB507001BD0B64C3878C00719D5A16883
:1008600038200840E1688025AD02102808D18807AB
:10087000800F032806D078686908884234D13BE0AD
:100880000828F8D12068054003D07868002800D1F6
:10089000E5E13878800779D5A16838200840E1681B
:1008A000A44AA54E10284CD18907890F02294AD0A5
:1008B000F8680028206800D193E0024038691043AE
:1008C00020602068A10D01432160FFF7BBFF3D00C0
:1008D00007002068400500D57BE0FFF7B3FFC01B91
:1008E0000328F6D30320FEBDA022D2029042206846
:1008F00005D18A00024322602068014305E0B8491F
:10090000014021602068B7490140216078680028D3
:100910000BD0FFF797FF060020682840B9D1FFF7FA
:1009200091FF801B6528F7D3DCE7FFF78BFF0600FC
:1009300020682840ADD0FFF785FF801B6528F7D3DE
:10094000D0E70028B4D12168490502D5F96800290B
:100950003ED061680E407969090231436160002828
:100960000ED1206802403869104320609E48012162
:1009700022689204520F914000F0AAFAB949086027
:10098000B948006800F010FE002821D1022638780E
:1009900000070AD5A06838210140182930D1206EFF
:1009A000304002D0B869002812D03878400700D40F
:1009B000A6E000200190A06838210140202941D103
:1009C000E06D064000D19BE0B868002800D097E0B9
:1009D00045E16068064068690002304360602F00AE
:1009E000D4E7A24901402160FFF72CFF05002068F1
:1009F0004005CBD5FFF726FF401B0328F7D371E74F
:100A0000B8690028206E0ED0012101432166FFF74E
:100A100019FF0500206E3040C7D1FFF713FF401BC0
:100A20000328F7D35EE7012188432066FFF70AFF1A
:100A30000500206E3040B8D0FFF704FF401B0328AC
:100A4000F7D34FE7F006E16B014008D1E16B0143BA
:100A5000E163E16B08400090009801200190844E12
:100A60003068C00512D4A00D009030680099014391
:100A70003160FFF7E7FE050030680099014005D1BD
:100A8000FFF7E0FE401B0328F6D32BE7B9680120EF
:100A9000012905D0052906D1E16D04220A43E2654A
:100AA000E16D084306E0E06D01218843E065E06DFB
:100AB00004218843E0650226B86800280CD0FFF7BF
:100AC000C1FE0500E06D304013D1FFF7BBFE401BB7
:100AD00068498842F6D305E7FFF7B4FE0500E06DEC
:100AE000304006D0FFF7AEFE401B62498842F6D385
:100AF000F8E60198002803D0E06B5F490140E1630C
:100B00003878800629D580263604F86900282068C0
:100B100014D0710801432160FFF794FE050020689E
:100B200030401AD1FFF78EFE401B0328F7D3D9E6D9
:100B300000100240FFC7FFFFFF80FFFFA3490140F5
:100B40002160FFF77FFE05002068304005D0FFF7E9
:100B500079FE401B0328F7D3C4E6386A002857D033
:100B6000A16838220A40102A54D08026B604984939
:100B7000022820683AD101402160FFF763FE3D0062
:100B800007002068304005D0FFF75CFEC01B03283B
:100B9000F7D3A7E6E0688F490140686A0843A96A6D
:100BA0000143E86A00020843296B0143686B08436C
:100BB000A96B0143E1602068710801432160E0688E
:100BC000F1000143E160FFF73DFE05002068304081
:100BD0001ED1FFF737FE401B0328F7D382E600BF84
:100BE000FFFFFEFFFFFFFBFF0024F4000140216038
:100BF000FFF728FE05002068304005D0FFF722FEF1
:100C0000401B0328F7D36DE6E0689B490140E16093
:100C10000020FEBD012822D0E0688107890F7A6A92
:100C200091421CD170210140BA6A914217D1FE2134
:100C3000C9010140FA6A1202914210D1F8218903D8
:100C400001403A6B91420AD1E021090501407A6BDB
:100C5000914204D1400F4007B96B8842D8D001209F
:100C6000FEBD00BF0C00002008000020FFFEFFFFBB
:100C70000070004089130000FFFFFFEFF8B5070088
:100C800066D000917D4800684007400F884218D226
:100C90007A4E306807218843009901433160FFF79D
:100CA000D1FD009C050030684007400FA04207D0EE
:100CB000FFF7C8FD401B72498842F4D30320F2BD00
:100CC00000943968704D022001420CD0490704D5C8
:100CD000A968E022D2010A43AA60A968694A0A40C9
:100CE000B9681143A9600726F6433978C90732D598
:100CF0007968012918D12868800329D5A86830406F
:100D00000143A960FFF79EFD3C000700A868382159
:100D100001406068C00081421CD0FFF793FDC01BFA
:100D200057498842F2D3C9E7022902D128688001D5
:100D300003E0002903D128684005DFD408E0032937
:100D400003D12A6E1040D9D102E0EA6D1040D5D10E
:100D50000120F2BD27000098484909684907490F5A
:100D6000884217D2454800680640009830434349FE
:100D70000860FFF767FD009C0600404800684007D8
:100D8000400FA04206D0FFF75DFD801B3C49884222
:100D9000F3D393E73878400705D5A8683B4901406D
:100DA000F8680843A86000F017F83949AA681205E6
:100DB000120F9200895CC906C90EC8403549086007
:100DC0003548006800F0F0FBF2BD0000FFFFBFFFF8
:100DD000FFFFFFFE8C80C11130B5072130482A4C3F
:100DE0003823A2681A4006D123680122DB0A194081
:100DF0008A4011001EE04208A5681D40082D01D15F
:100E0000100030BDA5681D40102D16D1E368E568BF
:100E10002D092940491C7F259B079B0F032B00D1DF
:100E2000100000F055F8E168090A0D406843E168D8
:100E3000490F491C00F04CF830BDA068184020282C
:100E400002D18020000230BDA0680340182B02D1DF
:100E5000FA20C00130BD002030BD104801680D48A7
:100E60000068104A4904490F8900515CC906C90E3F
:100E7000C840704700000000FCFFFEEE002002406A
:100E800089130000FFF0FFFF00100240FF8FFFFFFB
:100E90000C1A00080C000020080000200810024076
:100EA0000024F400741B0008CA0F00D0494203104C
:100EB0005A400DD004B500D3404200F009F8009A22
:100EC000D20701D34942124200D5404204BD00007E
:100ED000094214D088420FD30122030C01D100042F
:100EE0001204002300185B418B4200D35B1A52416D
:100EF000F8D319001000704701000020704708B5B2
:100F000000F078FB08BD12422DD0994231D970B55E
:100F100000251B4209D00C00002112E01100FFF750
:100F2000D7FF0A000021002370BD0942F6D000243B
:100F3000012649186441944200D3A41A7641F8D39B
:100F40003100012601E0764109D2001864416D416B
:100F5000A41A9D41F7D2A4185D41B619F5D330000B
:100F600022002B0070BD1B42CFD108B500F044FB1E
:100F700008BD01D19042CAD202000B00002100201E
:100F80007047FEE710B5040000F038FB0023DB4398
:100F900082B221000B48FFF7C7F810BD80B500F002
:100FA00035FB00F013F800F051FB00F0C5FBFFF734
:100FB000D7FB0548FFF7E6FFFA20800000F010FCA1
:100FC000FAE7000010000020FC1A000818B593B0E2
:100FD0003C2104A800F0B6F8684600210022002356
:100FE00000241EC08020800000F00EFC022004902F
:100FF000FE3007900894402009900C9404A8FFF755
:1010000027FC002801D000F00FF807200090019481
:101010000294039400216846FFF730FE002801D0B7
:1010200000F002F814B010BD72B6FEE730B5010052
:1010300084310A78012A01D1022030BD01220A70D0
:1010400024224A600268136814680125AC431460C6
:1010500000224266224C1C40006804602020486048
:101060000A70002030BD70B5040025008435287852
:10107000012801D1022070BD012028702420686061
:1010800020680668026801239A430260206882682B
:10109000D200D208114317E070B504002500843552
:1010A0002878012801D1022070BD01202870242059
:1010B000686020680668026801239A43026020681D
:1010C0008268084B134019438160200000F00CF83F
:1010D00020680660202068600020287070BD000035
:1010E000FFFFFFDFFFFFFFF1F8B50400606E00288F
:1010F00002D10120012517E0206881680901490F0C
:1011000000918068410F00BF0CA600BF09A7785C62
:10111000C000715CFFF7C8FE05000098385CC00095
:101120000099715CFFF7C0FE210068314D80088096
:10113000F1BD0000010101030701000008040204E1
:1011400008010101002200BF094202D0491E425499
:10115000FCD17047F8B584B0040000206A461070D6
:10116000964D022103912168890357D50190802073
:101170004005296B014008D1296B01432963296B84
:1011800008400190019801200190A80D02908C4F19
:101190003868029901433960FFF754FB060038684C
:1011A0000299014008D1FFF74DFB801B0328F6D3BD
:1011B0000320694608702AE0296DC020800008409D
:1011C000804F00280ED0216C88420BD0286D38400B
:1011D000296D802252020A432A65296D7A4A0A4003
:1011E0002A652865C0070DD5FFF72CFB0600286D82
:1011F0000399014006D1FFF725FB801B7349884204
:10120000F5D3D5E7286D0740206C38432865019851
:10121000002803D0286B6E49014029632078C0075D
:1012200005D5A86C0321884361680143A96420683F
:101230000399014005D0A86C0C218843A1680143A3
:10124000A9642078400705D5A86C30218843E1685F
:101250000143A9642078C00605D5A86C5D4901400A
:1012600020690843A86457482168C90404D5A96CBB
:10127000014062690A43AA642168890505D5A96C01
:10128000554A0A40A16A1143A9642168490505D558
:10129000A96C524A0A40E16A1143A9645049227874
:1012A000920604D5AA6C0A40A3691343AB64227862
:1012B000520605D5AA6C4B4B1340E2691A43AA6447
:1012C000226852040ED5AA6C92009208236B134335
:1012D000AB64226B8023DB059A4203D12A689B0B07
:1012E00013432B602268120305D5AA6C40239A434E
:1012F000636B1343AB648022520493082668B602E2
:101300000BD5AE6C384F3740A66B3E43AE64A66B30
:101310009E4202D12E6816432E60266833400BD0C1
:10132000AB6C324E1E40E36B3343AB64E36B9342D2
:1013300002D12B6813432B60130A266836050BD5A0
:10134000EE6C0327BE43276A3743EF64266A012EFB
:1013500002D12E681E432E602668B6040BD5EE6CB3
:101360000C27BE43676A3743EF64666A042E02D1D6
:101370002E6833432B60236813400BD0EB6C19406D
:10138000636C0B43EB64616CD30A994202D1296808
:1013900011432960216889010BD5E96C0840A16CD3
:1013A0000143E964A06C110C884202D12868024311
:1013B0002A606846007805B0F0BD00000C100240BD
:1013C00000700040FFFCFFFFFFFFFEFF89130000DD
:1013D000FFFFFFEFFFF3FFFFFFFFF3FFFFFFCFFF75
:1013E000FFCFFFFFFF3FFFFFFFFFBFFFFFFFFFFE3E
:1013F000FFB500220F2302932DE0052603E0624E85
:10140000B042FAD10426AE402643009C26605F4CD1
:101410002568DC4325404E68F60200D51D435B4E2F
:101420003560756825404F68BF0200D51D43756063
:10143000574D6D6825404E68B60300D51D43544E88
:10144000756035682C404D68ED0302D525001C0001
:101450002C433460521C0B681C00D4407AD0012508
:1014600095402B40F6D054000326A640F743019741
:101470004E68B707BF0F012F03D0B607B60F022E75
:101480000ED18668019F3740CE68A6403E438660F5
:101490004668AE434D68EF06FF0F974037434760FD
:1014A0000D79AD07AD0F032D25D0C568019E2E40E7
:1014B0008D68A5403543C5600D79AD07AD0F022D90
:1014C00019D1D508AD0045192E6A039696001C2740
:1014D00037406E463770039EB446029F6E4636789C
:1014E000B7406646BE43B4460F696E463678B7408D
:1014F000664637432F6207680326019D3D404F68CB
:101500003740A7402F4307604C6835042540A1D0E1
:10151000204C9508AD0064190094009C2468D70005
:1015200018253D40029FAF40BC43A027FF05B842AD
:1015300001D1002667E7184FB84201D1012662E7C2
:10154000164FB84201D102265DE7154FB84200D0D0
:1015500055E758E7FFBD002A01D0816170478162DD
:10156000704770B5040025000E4E3068284003D047
:101570003560200000F06EF97068284003D0756077
:10158000200000F068F970BD001000500018024003
:10159000801802406018024000040050000800500B
:1015A000000C00500C18024070B5060000240F4DCE
:1015B0002978002916D0FA208000FFF789FC010065
:1015C0000B480068FFF784FC00F068F9002809D197
:1015D000042E07D2002231000020C04300F059F948
:1015E000AE6000E00124200070BD00BF00000020BC
:1015F0000C0000207047FEE77047FEE7431C0178AF
:10160000401C0942FBD1C01A7047FEE710B5002408
:101610000B480168820D0A4302600020FFF7C4FFF7
:10162000002801D0012401E000F052F9200010BD93
:1016300004490A68044B13401843086070470000CF
:101640000020024000000140FFF9FFFFF8B586B01E
:10165000142100226846FFF777FD0427334801680C
:1016600039430160016839400591059901682022DC
:101670000A43026001682022114005910599012664
:1016800001683143016001683140059105990168A5
:1016900002220A4302600068022108400590059872
:1016A00000222021A020C005FFF755FF00220321C2
:1016B0001F48FFF750FF74030094882040030190F7
:1016C0000025029569461B48FFF792FE20200090F6
:1016D00001960295022003906946A020C005FFF7FD
:1016E00087FE0320009001960295039569461048F5
:1016F000FFF77EFE00970195029569460C48FFF7BB
:1017000077FE60090090019502956946A020C0050A
:10171000FFF76EFE009484208003019002956946D5
:101720000448FFF765FE07B0F0BD00BF341002406B
:10173000000400500008005080B52648264901608A
:1017400082214900416000218160E022D200C26014
:1017500001614161802292008261C1610162416246
:1017600081620722C26201630821416300F0CAF866
:10177000002801D0FFF758FC01BD10B586B0040069
:101780001421002201A8FFF7DFFC206812498842DB
:101790001DD11248810CC2680A43C260C268114060
:1017A00000910099012102680A430260006801402B
:1017B00000910098C2200190022002900020039026
:1017C0000490059001A9A020C005FFF711FE06B006
:1017D00010BD0000A4000020003001403410024081
:1017E00038B50400FFF72EF805000020C0438442FE
:1017F00002D0044800782418FFF724F8401BA042C8
:10180000FAD331BD0000002010B50E4C21680E4AFD
:101810000A4002432260610D884210D10B480068E3
:10182000062148430A49FFF753FB401C00E0401ED5
:101830006169490503D50028F9D1032010BD0020B6
:1018400010BD000000700040FFF9FFFF0C000020F9
:1018500040420F007047704710B5C30018221A406D
:10186000FF249440E3438907090E9140020004D409
:10187000144892089200801806E0134A0007000FEF
:10188000083880088000101802681340194301606E
:1018900010BD80B5FFF7E0FF01BD000010B5401E90
:1018A00080214904884201D3012010BD074C6060AB
:1018B00003210020C043FFF7CFFF0020A0600721D5
:1018C000216010BD00E400E01CED00E010E000E04D
:1018D00080B50B48012142680A43426042681140CA
:1018E000009100998021490502680A43026000685E
:1018F000014000910098C020C000FFF799FE01BD93
:101900003C100240F8B5040001D10120F2BD82274D
:101910007F000025606A002804D16068B84203D0C7
:10192000E56101E025616561A56226005C3670789D
:10193000002803D135702000FFF71FFF02207070D0
:1019400020680168402291430160E368E022D200F0
:10195000F0200001934203D90021834204D104E026
:1019600080214901934200D0A562012263681F4093
:10197000BC46A76884231B023B4067463B439C460A
:10198000277C02231F4063461F43636913403B4388
:101990009C46A76953021F4063461F43BC46277FEE
:1019A00038233B4067463B439C462023E75C80232B
:1019B0001F4063461F43BC46A76A53031F4063464C
:1019C0001F4323681F60A3691B0C04273B409C46F0
:1019D0002423E75C10231F4063461F43BC46342387
:1019E000E75C08231F4063461F43E3681840384301
:1019F0000143206841602068C169034B0B40C3610B
:101A0000756072700020F2BDFFF7FFFF000000005C
:101A100000000000000000000000000000000000C6
:101A200000000000000000000000000001000000B5
:101A30000200000003000000040000000600000097
:101A400007000000080000000900000070B4012138
:101A5000002213E00368001D0B4202D04D46EB1834
:101A60005B1E1A601B1D241F042CFAD21D00A60742
:101A700001D51A80AD1C0C4000D02A700468001DEE
:101A8000002CE7D170BC7047FEE7FEE77047704757
:101A900080B500F013F801BD80B50420FFF761FDAB
:101AA00001BD10B58024A4012000FFF75AFD600994
:101AB000FFF757FD2000FFF754FD10BD02484168B5
:101AC00002788918416070470000002030B401217D
:101AD0000EE00368C318446808300C4202D04D463B
:101AE0002C19641E1D6825601B1D241D121FF9D1B1
:101AF0000268001D002AECD130BC70475465737435
:101B000020535831323131203A204C65637475725C
:101B1000652064752072656769737472652030781A
:101B200030312E2E2E0D0A0010B507497944183198
:101B3000064C7C44163404E0081D0A68891888475E
:101B40000100A142F8D110BD0800000028000000EB
:101B5000FDFEFFFFF8000000100000200000000064
:101B60006DFFFFFF10000000A40000000000002037
:101B70000000000000000000000000000000000065
:101B8000000000000100000002000000030000004F
:101B90000400000000F00DF8002801D0FFF7C4FF9A
:101BA00000BF00BF002000BF00BFFFF7F7F900F043
:101BB00002F80120704780B500F002F801BDFEE791
:101BC0000746384600F002F8FBE7FEE780B500BFA5
:101BD00000BF024A11001820ABBEFBE7260002003E
:101BE0000548014603B4684680F3098800BF00BF7A
:101BF00000BF00BFFFF7CEFFA5EDF5FE014880470F
:101C0000014800474D1C0008E11B000801000000CE
:101C100000000000040000000024F400FEE7FEE7DE
:101C2000FEE7FEE7FEE7FEE7FEE7FEE7FEE7FEE78C
:101C3000FEE7FEE7FEE7FEE7FEE7FEE7FEE7FEE77C
:0E1C4000FEE7FEE7FEE7FEE7FEE70000704766
:0400000508001BE1F3
:00000001FF
