:020000040800F2
:1000000028080020F9300008E52F0008E72F000835
:1000100000000000000000000000000000000000E0
:10002000000000000000000000000000E92F0008B0
:100030000000000000000000EB2F0008ED2F00087A
:10004000070D000867240008432800081F2900083E
:100050001F2E0008232E0008F52F0008FF2F000890
:1000600013300008BB300008C73000080931000811
:100070000B3100080D3100080F3100081131000864
:100080001331000815310008173100081931000834
:100090001B3100081D3100081F3100082131000804
:1000A00023310008253100082731000829310008D4
:1000B0002B3100082D3100082F310008F8B504005D
:1000C00001D10120F2BD82277F000025606A00284F
:1000D00004D16068B84203D0E56101E02561656143
:1000E000A56226005C367078002803D135702000A8
:1000F00000F09EFB0220707020680168402291434E
:100100000160E368E022D200F0200001934203D9AD
:100110000021834204D104E080214901934200D0B0
:10012000A562012263681F40BC46A76884231B02A6
:100130003B4067463B439C46277C02231F40634667
:100140001F43636913403B439C46A76953021F400A
:1001500063461F43BC46277F38233B4067463B43EB
:100160009C462023E75C80231F4063461F43BC4618
:10017000A76A53031F4063461F4323681F60A36998
:100180001B0C04273B409C462423E75C10231F40A4
:1001900063461F43BC463423E75C08231F40634685
:1001A0001F43E368184038430143206841602068DA
:1001B000C169754B0B40C361756072700020F2BD60
:1001C000FCB583B004000E0000274430007E0128F7
:1001D00001D10220D6E0150001202100443108762B
:1001E00000F058FB0290280021004431497E01298B
:1001F00001D00227C1E0002E00D0290000D1B8E0D4
:100200000321220044325176002122004432D16180
:10021000A663A587E58721644422A15222004432C7
:10022000518022004432D160220044329160A168A2
:1002300080221202914209D121680A6840239A4320
:100240000A6021680A681B0213430B602168402280
:100250000B68134002D10B681A430A6061680022E0
:10026000D2430192120C6B461A80049DE268474B00
:100270009A4234D3002901D001280BD1A06B008809
:100280002168C860A06B801CA063E08F6946098864
:100290004018E087029E0AE0A16B0988C160A06B4C
:1002A000801CA063E08F694609884018E087E08FD2
:1002B000002844D0206881688907EDD400F0EAFA6C
:1002C000801BA84208D301988542F0D00327012063
:1002D00021004431487650E0002DE8D1F6E70029AE
:1002E00001D001280BD1A06B007821680873A06BA6
:1002F000401CA063E08F694609884018E087029E91
:100300000AE0A16B09780173A06B401CA063E08F29
:10031000694609884018E087E08F00280FD02068E0
:1003200081688907EDD400F0B5FA801BA84203D399
:1003300001988542CAD1EFE7002DEDD1C6E729002B
:100340003200200000F02EFA002803D020202100E7
:100350004431C861A068002806D100902068C168B7
:10036000009180680090009820004430C169002905
:1003700001D0012701E00121417600202100443114
:100380000876380005B0F0BDFFF7FFFF0107000059
:10039000F2B584B0040017000120039000206946E4
:1003A000087020004430007E012801D1022011E1B4
:1003B0001D000126210044310E7600F06BFA0290F8
:1003C00020004430417E280001290BD0626882233E
:1003D0005B009A4204D1A268002A01D1042901D00D
:1003E0000220EAE00499002903D0002F01D02A005E
:1003F00002D168460670E7E0230044335A7E042A9F
:1004000001D005225A760022DA6127645D801D80C2
:10041000A163E587A5879A60DA6021686E4AE36880
:1004200093424B6804D3014D1D4003E0FFEFFFFFF3
:1004300035031D434D60216840230D681D4002D1E6
:100440000D682B430B606368002101910A99E568F0
:1004500095424ED3002B01D0012809D1A06B008812
:100460002268D060A06B801CA063E08F401EE087F4
:100470000A91039E029DE08F002804D120004430A1
:10048000408800284DD020685449826892070ED5D4
:10049000E28F002A0BD0002E09D0A26B1288C26016
:1004A000A06B801CA063E08F4018E087019E20684D
:1004B0008268D2070ED5220044325388002B09D01F
:1004C000C068236C1880206C801C20645088401801
:1004D0005080012600F0DEF9401B0A998842CAD3F9
:1004E00008460021C9438842C5D0032069460870E8
:1004F00066E0002B01D0012809D1A06B00782268AA
:100500001073A06B401CA063E08F401EE0870A912F
:10051000039E029DE08F002804D1200044304088D3
:10052000002836D020682D4A816889070ED5E18FD2
:1005300000290BD0002E09D0A16B09780173A06BA4
:10054000401CA063E08F8018E087019E2068012195
:1005500083680B400ED0230044335F88002F09D0FE
:10056000007B266C3070206C401C206458888018FA
:100570005880012600F08EF9401B0A9988420846EF
:1005800004D30021C9438842AFD1C3E70028C1D1B9
:10059000ABE70A992A00200000F004F9002806D0F1
:1005A000012069460870202021004431C8612000E4
:1005B0004430C069002803D001206946087003E078
:1005C0000120210044314876002021004431087682
:1005D0006846007805B0F0BD01070000FFFF00008D
:1005E000FEB582B004000A9D1E4600F053F9301A91
:1005F000471900F04FF9694909684901090D794324
:10060000009100250126019006E00098002800D105
:1006100000270098401E00902068806802990140E1
:100620000298814201D1012000E000206946097B47
:10063000884235D004980021C9438842ECD000F0AC
:1006400029F90199401AB84201D2002FDDD1206862
:100650004168E022914341606068822149008842FC
:100660000BD1A068F103884202D04909884204D125
:10067000206801684022914301607003A16A8142B1
:1006800008D121680A68464B13400B6021680A684C
:100690001043086020005C3046700570032000E0C5
:1006A000002005B0F0BDFCB585B007000E000C9C25
:1006B00000250020694608700699009100F0EAF8CC
:1006C0000099081A0019009000F0E4F839680C311C
:1006D000009A324B1B68232463431B0D5A4301923B
:1006E0003C000296059F009E0490039106E001984D
:1006F000002800D100260198401E019020688068E3
:1007000002990140B94245D00298C021C9008842EF
:1007100007D1002F05D10398007869460870684614
:10072000007806980021C9438842E7D000F0B2F86B
:100730000499401AB04201D2002ED8D120684168F5
:10074000E0229143416060688221490088420CD1D7
:10075000A06880210902884202D04909884204D158
:100760002068016840229143016080208001A16AD5
:10077000814208D121680A68094B13400B60216847
:100780000A681043086020005C3001214170057048
:10079000032000E0002007B0F0BD00006000002052
:1007A000FFDFFFFFF8B504000F00160020250096BC
:1007B0003B000022C0214901FFF775FF002812D13C
:1007C00000963B00002280212000FFF709FF00284F
:1007D00009D100963B000022C021C9002000FFF78C
:1007E00062FF002803D0206E054325660320F2BD7A
:1007F00080B52548254901608221490041600021DA
:100800008160E022D200C2600161416180229200D9
:100810008261C1610162416281620722C262016339
:100820004163FFF74BFC002801D000F00BF901BD3C
:1008300010B586B00400142101A800F03FF920682B
:10084000124988421DD11248810CC2680A43C26015
:10085000C268114000910099012102680A430260B8
:100860000068014000910098C2200190022002908F
:10087000002003900490059001A9A020C00500F07D
:1008800025F906B010BD0000B00200200030014084
:100890003410024001484068704700BF4800002003
:1008A00048480078012182080A4200D1704780B58B
:1008B0000009084208D044494448C2884A708A1C4A
:1008C0000421801C00F002FA00F0E2F940480178AF
:1008D00004220A43027001BD10B5040000F00CFAB6
:1008E0000023DB4382B221003A4800F043FA10BDF6
:1008F00000000000F8B500F059FD00F075F800F0B8
:1009000075FDFFF775FF00F0E5FD00F053FE0028D0
:1009100002D000BF4CA000E050A0FFF7DDFF2E4842
:1009200001F048F80020C04300F0BBFF602000F059
:1009300022FF2A4C25004535234E802704E000BFC6
:1009400057A0FFF7C9FF38E0601C00F06FFE0028D9
:10095000F5D000BF46A0FFF7BFFFA07938422CD1E9
:100960001F480078182101400BD11E48007840082C
:10097000C00703D420797178884202D0E078FD283E
:100980001BD121002000443001F096F84520205C66
:10099000801D2870E0786870B079A8707078E87071
:1009A00060792871A07938436871280000F0A1FEB1
:1009B00035A0FFF791FFFFF773FFB420800000F030
:1009C000F9FFC1E74F0200205C0300209C000020DB
:1009D0002104002030010020B80B0000C4010020D9
:1009E0004D0200204E02002018B593B03C2104A80F
:1009F00000F064F8684600210022002300241EC095
:100A00008020800001F0B4F902200490FE300790AD
:100A10000894402009900C9404A801F0CFF9002814
:100A200001D000F00FF80720009001940294039485
:100A30000021684601F0D8FB002801D000F002F840
:100A400014B010BD72B6FEE7636F6E6669677565B8
:100A5000207265757373690D0A000000636F6E661E
:100A600069677565206563686F7565650D0A0000C7
:100A70004D657373616765205246207265C3A77523
:100A800020210D0A000000004D6573736167652029
:100A9000524620656E766F79C3A920210D0A0000A9
:100AA000417563756E206D6573736167652052468D
:100AB000207265C3A7752E0D0A000000002200BF3A
:100AC000094202D0491E4254FCD17047FFB50022B2
:100AD0000F2302932DE0052603E0654EB042FAD1C4
:100AE0000426AE402643009C2660624C2568DC4309
:100AF00025404E68F60200D51D435E4E3560756890
:100B000025404F68BF0200D51D4375605A4D6D6882
:100B100025404E68B60300D51D43574E75603568B5
:100B20002C404D68ED0302D525001C002C43346099
:100B3000521C0B681C00D4407AD0012595402B40F4
:100B4000F6D054000326A640F74301974E68B70736
:100B5000BF0F012F03D0B607B60F022E0ED1866845
:100B6000019F3740CE68A6403E4386604668AE434C
:100B70004D68EF06FF0F9740374347600D79AD078B
:100B8000AD0F032D25D0C568019E2E408D68A54070
:100B90003543C5600D79AD07AD0F022D19D1D508CC
:100BA000AD0045192E6A039696001C2737406E4605
:100BB0003770039EB446029F6E463678B74066464D
:100BC000BE43B4460F696E463678B7406646374333
:100BD0002F6207680326019D3D404F683740A740BC
:100BE0002F4307604C6835042540A1D0234C95085D
:100BF000AD0064190094009C2468D70018253D407E
:100C0000029FAF40BC43A027FF05B84201D1002698
:100C100067E71B4FB84201D1012662E7194FB8427E
:100C200001D102265DE7184FB84200D055E758E7DA
:100C3000FFBD0069084000D00120C0B27047002A03
:100C400001D0816170478162704770B50400250052
:100C50000E4E3068284003D03560200001F0DAFBEA
:100C60007068284003D07560200001F0D4FB70BD8F
:100C70000010005000180240801802406018024026
:100C80000004005000080050000C00500C180240F6
:100C9000F8B5154F46221649380001F0D7FB00245D
:100CA000144D124E01F015FC6000395A305A01F013
:100CB000B1FC287001F01DFC2878002802D068786B
:100CC000401C6870641C232CECDBF1BD10B50023C4
:100CD00004E0047814705B1C521C401CDCB28C4293
:100CE000F7D3012010BD00001403002000000020F5
:100CF0005C030020D6030020431C0178401C0942FD
:100D0000FBD1C01A7047FEE738B5040001D10120BD
:100D100032BD250084356868002803D12870200082
:100D200000F009FC242068602068016801229143DA
:100D30000160A06A002802D0200000F0D1F9200054
:100D400000F086F8012811D020684168084A0A405E
:100D50004260206881682A2291438160206801688E
:100D600001220A430260200000F024FA32BD000094
:100D7000FFB7FFFFF1B584B01F0006465436706B15
:100D8000202861D10C000FD068460280002A0BD0C9
:100D90000498806880214901884207D1049800693D
:100DA000002803D1E00701D501204EE00025F563BE
:100DB00021207063FFF76EFD0100684600883080D7
:100DC0006846008870803A000498806880235B0140
:100DD000984209D104980069002805D12500049F94
:100DE0000192029104001AE02000F8E72178816264
:100DF000641C11E001980090029B002280213800C1
:100E000000F042FA00281BD13868002CEED1298866
:100E1000C905C90D8162AD1C7088401E7080708844
:100E20000028E7D13800029B01990091002240215F
:100E300000F02AFA002803D120207063002004E08B
:100E400020207063032000E0022005B0F0BD000008
:100E5000F8B5050000242B68186891490140A8687E
:100E600008432969014368690843E9690143196036
:100E700058688C490140E86808435860A8698A4965
:100E80008B4205D089498B4202D00100286A084371
:100E90009968874A0A4010439860D86A0F218843AE
:100EA000696A0143D962834880210902824E102277
:100EB000824FBB422ED13668B607B60F30D0022E15
:100EC00036D044D3032E31D0774EB34202D0774E82
:100ED000B34242D1002A08D0022A0BD0042A00D102
:100EE00092E0082A00D192E0CEE001F06CFA0028EE
:100EF00000D1CAE072496A6A5200895A01F0B6FC10
:100F00006A6851008918884203D31103814200D3D3
:100F10007FE0B9E06B4FBB420CD136680C273740FD
:100F200070D0042F13D0082F02D00C2F56D0CBE74F
:100F30000222C9E79C4FBB420BD1366830273740AD
:100F400060D0102F03D0202FF2D0302FEEE70422F4
:100F5000BAE7964FBB4229D10022954F5AA6EB69BA
:100F60008B426AD1002A06D0022A08D0042A5FD018
:100F7000082A60D088E001F026FA002869D0696864
:100F80000091696A4900715A01F070FC40000099B3
:100F900049084018009901F069FC01001039B94274
:100FA00072D207400007400F384365E0AD4FBB42A7
:100FB000D2D0AD4FBB42CFD03B4FBB4210D13668F1
:100FC000C0273F0137401DD04E09B742BFD00E09A0
:100FD000B742ADD0C0263601B74200D1082273E730
:100FE000324FBB42B9D13668C027BF00374009D065
:100FF000CE09B742ABD08E09B74299D0C026B60011
:10100000B74293E700225FE701F09CF96FE7080021
:1010100070E7070E0602500800218019794100236D
:1010200001F03FFC91494118914A91422CD223E0B2
:1010300001F088F9A1E70800A1E7002A06D0022AFA
:1010400008D0042A1BD0082A1CD01DE001F0BBF9EF
:1010500000281AD069680091696A4900715A01F044
:1010600005FC009949084018009901F0FFFB0100B8
:101070001039B94208D280B22968C86005E001F091
:1010800061F9E5E70800E5E701242800683001215F
:10109000418001800021C16001612000F2BD00009B
:1010A000F369FFCFFFCFFFFF0080004000840040C6
:1010B000FFF4FF110024F4005410024000380140F6
:1010C000C8100008004400400100020004000600AF
:1010D00008000A000C001000200040008000000101
:1010E0002821415C090706D501684A68614B134015
:1010F000826B1A434A602821415CC90706D5016802
:101100004A685D4B1340C26A1A434A602821415C19
:10111000890706D501684A68584B1340026B1A4389
:101120004A602821415C490706D501684A68544B4A
:101130001340426B1A434A602821415CC90606D518
:1011400001688A684F4B1340C26B1A438A6028219A
:10115000415C890606D501688A68744B1340026CAD
:101160001A438A602821415C490611D501684A6802
:101170006F4B1340426C1A434A60426C80235B03FE
:101180009A4205D14A686B4B1340826C1A434A60FD
:101190002821415C090606D501684A68664B134060
:1011A000C06C18434860704700480040004C004045
:1011B000F0FF0000FEB50600370084370024FC6015
:1011C000FFF768FB0190202530680068000717D5FD
:1011D0005A480090019B00222904300000F054F886
:1011E00000280DD0EFF31080012181F310883168C1
:1011F0000A6880239A430A6080F310887D6026E0A5
:1012000030680068400725D54C480090019B0022BB
:101210006904300000F038F800281BD0EFF310808C
:10122000012181F3108831680A68454B13400B6037
:1012300080F31088EFF31080012181F3108831686A
:101240008A6801239A438A6080F31088BD603C70ED
:101250000320FEBD7D60BD60F46634673C700020F5
:10126000FEBD000000500040003C014000FDFFFFBB
:1012700000FD0F00FF7FFFFFFFFFFDFFFFFFFEFFF1
:10128000FFFFFBFFFFEFFFFFFEB580273F010825B3
:101290000026040001916846027002932068C0692C
:1012A000019901400198814201D1012000E0002014
:1012B00069460978884236D108980021C943884296
:1012C000ECD0FFF7E7FA0299401A0899814201D35E
:1012D000002901D10320FEBD206800684007DDD54C
:1012E00001988028DAD04028D8D02068C0692840EA
:1012F000206803D1C0693840D0D009E005622000E1
:1013000000F020F820008430C56006700120FEBD8A
:1013100020680762200000F015F8200084302021AA
:10132000C1600670D6E70020FEBD0000FFDFFFFFB2
:10133000FFFFEFFFFFFF9FFFFFFFF7FFFFFFFF0133
:10134000DFFEFFFF10B5EFF31081012282F310885A
:1013500002681368134C1C40146081F31088EFF38B
:101360001081012282F31088026893680E4C1C40A1
:10137000946081F31088C16E01290BD1EFF31081C5
:10138000012282F31088026813681024A3431360BB
:1013900081F3108820218C2281500021C166416791
:1013A00010BD0000DFFEFFFFFEFFFFEF10B50024C1
:1013B0000B480168820D0A430260002001F0B0FA78
:1013C000002801D0012401E001F0D0FA200010BD76
:1013D00004490A68044B1340184308607047000032
:1013E0000020024000000140FFF9FFFFF8B586B081
:1013F00014216846FFF762FB04273348016839432C
:1014000001600168394005910599016820220A436D
:1014100002600168202211400591059901260168AA
:10142000314301600168314005910599016802224C
:101430000A430260006802210840059005980022D6
:101440002021A020C005FFF7FAFB002203211F483E
:10145000FFF7F5FB740300948820400301900025FA
:10146000029569461A48FFF731FB2020009001964B
:101470000295022003906946A020C005FFF726FBD5
:101480000320009001960295039569460F48FFF7E7
:101490001DFB00970195029569460C48FFF716FB66
:1014A00060090090019502956946A020C005FFF7EC
:1014B0000DFB009484208003019002956946044846
:1014C000FFF704FB07B0F0BD3410024000040050E9
:1014D0000008005010B5344C34482060E120400230
:1014E00060600020A060E06020610C216161A0616B
:1014F000E06120626062A0622000FFF705FC002826
:1015000001D0FFF79FFA0021200001F066FA0028C1
:1015100001D0FFF797FA0021200001F077FA0028A8
:1015200001D0FFF78FFA200001F03AFA002801D02D
:10153000FFF788FA10BD30B599B00400142101A856
:10154000FFF7BCFA4C2106A8FFF7B8FA2068174944
:10155000884226D1022406940025089506A801F0A9
:10156000ABFA002801D0FFF76DFA11482104826818
:101570000A4382608268114000910099012102684B
:101580000A43026000680840009000980C20019017
:10159000029403950495059101A9A020C005FFF7C9
:1015A00095FA19B030BD0000300100200044004021
:1015B0003410024038B5002414A501E0142803D0EB
:1015C000E0B2295C00F08AF9641CE0B22028F5DB67
:1015D000162000F0A9F912280ED1172000F0A4F966
:1015E000342809D1182000F09FF9562804D1192079
:1015F00000F09AF9782801D0002032BD2020B549AA
:101600004870002000F0B7F8012032BD308C070789
:101610000CCF7F654A775F1938881982E33838071D
:10162000000012345678503C40FFEC00FEB5060036
:10163000A84C6078694688710025A74F4021380082
:10164000FFF7F7FA002818D0142000F06DF969466A
:10165000087068460078A178884200D20800A0701F
:101660000D2000F061F9C00708D589210D2000F098
:1016700035F92078401C207000E0A57080214900D9
:10168000A020C005FFF7D5FA002831D0FF20694619
:1016900048710024202000F06EF840211F2000F047
:1016A0001DF96846057840213800FFF7C2FA002886
:1016B00019D0002201213800FFF7C1FA0020C043F1
:1016C0000090012301AA01A9491C9648FEF760FE7B
:1016D000012201213800FFF7B2FAE0B23554641C50
:1016E000E0B24028DFDB6846807900F044F8012052
:1016F000FEBD7CB5060077484078694608703578AD
:101700006D1C80242402E8B2412800DB73BD202038
:1017100000F031F800211F2000F0E0F803E03078FD
:1017200000F029F9761C2800451E0006F7D180201C
:1017300000F021F86846067825002800451E0004C0
:1017400007D0E109A020C005FFF773FA0028F4D004
:1017500003E0300000F00FF873BDADB2611B5D48CF
:101760008268914200D30A0082604160FA208000C2
:1017700000F016F9EDE7F8B5564C6178FA277F00CE
:10178000C826B600884D00287DD0202846D04028A5
:101790005BD0602822D0802800D081E0002906D0CC
:1017A00020290BD0402910D060290ED014E0302120
:1017B000002000F093F8280000F0F2F850210020FB
:1017C00000F08CF8300000F0EBF89021002000F0E1
:1017D00085F8380000F0E4F8802060E0002906D0A9
:1017E00020290BD0402910D080290ED014E03021C0
:1017F000002000F073F8280000F0D2F850210020FB
:1018000000F06CF8300000F0CBF87021002000F000
:1018100065F8380000F0C4F8602040E0002906D0E8
:1018200040290CD060290AD0802908D00BE0302153
:10183000002000F053F8280000F0B2F803E0302157
:10184000002000F04BF8202029E0002906D02029B4
:101850000BD0602911D080290FD012E03021002058
:1018600000F03CF8280000F09BF85021002000F028
:1018700035F8300000F09EF803E05021002000F021
:101880002DF840200BE0202905D0402903D0602905
:1018900001D0802902D1102100F020F800206070D2
:1018A000F1BD10B50400210E162000F017F821023A
:1018B000090E172000F012F82104090E182000F07C
:1018C0000DF8E1B2192000F009F810BD0148807848
:1018D00070470000540000200004005073B5334EE0
:1018E000002202213000FFF7AAF968460078400084
:1018F0003E210140684601700A4D0024E443230064
:10190000012269462800FEF75BFC2300012201A9A1
:101910002800FEF755FC012202213000FFF78FF965
:1019200073BD0000B002002011B583B06846007B93
:1019300040003E210140402008436946087301A849
:10194000002101704170194C002202212000FFF794
:1019500076F90020C0430090022301AA03A914488D
:10196000FEF716FD012202212000FFF768F901A809
:10197000407804B010BD11B581B00C4C002201219B
:101980002000FFF75CF90023DB43022201A908488D
:10199000FEF716FC012201212000FFF750F913BDCC
:1019A00080B500F007F801BD881300000004005066
:1019B000B002002038B50400FEF76CFF05000020DF
:1019C000C043844202D0044800782418FEF762FF26
:1019D000401BA042FAD331BD4800002050B504009E
:1019E0000A2100F02FFF060120000A2100F02AFF43
:1019F0007018C0B250BDCB484178FA220A40042189
:101A000011434170FA21C9000185704780B528480B
:101A1000C5498A7A0270CA7A42700A7B82700A7853
:101A2000931F022B00D90522C270028E0271120A86
:101A300042712A221031801D00F008FD01BD80B5E1
:101A40001C481B490A7882724A78C2728A780273EB
:101A5000CA78931F022B00D9052202704A7912021C
:101A60000B79D2180A862A22891D103000F0EEFC6C
:101A700001BD80B5FFF7E3FFAA48417840220A4341
:101A80004270C178C0220A43C2700121417101BD78
:101A900000200021A54A0B06DB0DD3185B88C01877
:101AA000491CCBB2482BF6DB80B270470000000027
:101AB000A40300205C030020F0B585B004000D00F5
:101AC000002069460870E879964E0127032800D166
:101AD000E3E0172805D0412870D0422800D1C2E0A9
:101AE0001AE1E97A0491E97B0291297C049A002A9F
:101AF00004D01D2A00DBDCE0029A002A00D1D8E0E5
:101B0000192A01DC4908914200D0D2E0287B00026A
:101B1000697B4018039040000399854A91420ADA94
:101B2000844900911A316A469180301882494618DA
:101B3000FFF76CFF06E08149009117316A469180FA
:101B40007F490E1803980099884228DB68468088F0
:101B50000399029A8918491E884220DB5200290005
:101B60001131300000F072FCFFF783FF287A000289
:101B7000697A401873494118182907D26F490091B2
:101B800017316A4691806E4942008E18009988424A
:101B900005DB69468988049A8018401E814200DA74
:101BA000B4E0E879E071049842002272D2B23100C8
:101BB0002000093000F04AFC207A52E0287A0428FC
:101BC00000D0A3E05848E978C17129794170042216
:101BD00029000931801C00F039FCFFF759F8E87939
:101BE000E071FFF755FF10255749098840185749FC
:101BF000884218D10320207255480078FFF7EEFE86
:101C0000607254480078FFF7E9FEA07252480078ED
:101C1000FFF7E4FEE072042069460870707805431F
:101C200075704E4803E0707805437570C8203085A4
:101C30002000083069460978475468460078401CFF
:101C4000272122000832C3B2D154401C00212200B7
:101C50000832C3B2D154401C042122000832C3B25E
:101C6000D154401C17E0297A002955D0FFF7C3FE54
:101C7000687A3B4AD084F071E879E071A879A07164
:101C800038202072FFF722FE0200382120000930A0
:101C9000FEF716FF3920607042E0297A09026A7A5D
:101CA00089180091E97A4A000192002901D0192986
:101CB00003DB8030E07103202CE00098294A904239
:101CC00024DB40182849884220DA01982072019AC2
:101CD000D2B2164800994900401824494118200002
:101CE000093000F0B3FBE879E0710198401C6070A6
:101CF000F07800991B4A914201D1042103E031326E
:101D000091420DD110210143F17009E0E879803052
:101D1000E0710220207202E08030E071277267706B
:101D200005B0F0BD4C0200205C0300209C000020A8
:101D30005B9C0000409C0000ACC7FEFF54A100006B
:101D4000FCC0FE1FAC5EFFFF1C040020FFFF000074
:101D50001E0400201F040020200400207017000033
:101D6000D80300201DA2000067A20000C6BBFEFF32
:101D700010B50E4C21680E4A0A4002432260610DE4
:101D8000884210D10B480068062148430A4900F0F8
:101D90006DFD401C00E0401E6169490503D5002827
:101DA000F9D1032010BD002010BD000000700040DC
:101DB000FFF9FFFF6000002040420F00FEB5070062
:101DC0001BD0B64C3878C00719D5A1683820084018
:101DD000E1688025AD02102808D18807800F03280C
:101DE00006D078686908884234D13BE00828F8D1E9
:101DF0002068054003D07868002800D1E5E13878F4
:101E0000800779D5A16838200840E168A44AA54E2A
:101E100010284CD18907890F02294AD0F868002878
:101E2000206800D193E002403869104320602068A8
:101E3000A10D01432160FEF72DFD3D000700206844
:101E4000400500D57BE0FEF725FDC01B0328F6D337
:101E50000320FEBDA022D2029042206805D18A0054
:101E6000024322602068014305E0B8490140216037
:101E70002068B74901402160786800280BD0FEF740
:101E800009FD060020682840B9D1FEF703FD801B3C
:101E90006528F7D3DCE7FEF7FDFC06002068284044
:101EA000ADD0FEF7F7FC801B6528F7D3D0E70028FC
:101EB000B4D12168490502D5F96800293ED061688E
:101EC0000E40796909023143616000280ED1206813
:101ED00002403869104320609E4801212268920424
:101EE000520F914000F0C2FCB9490860B94800683F
:101EF00000F016FD002821D10226387800070AD507
:101F0000A06838210140182930D1206E304002D01D
:101F1000B869002812D03878400700D4A6E0002025
:101F20000190A06838210140202941D1E06D064090
:101F300000D19BE0B868002800D097E045E16068D8
:101F4000064068690002304360602F00D4E7A24970
:101F500001402160FEF79EFC050020684005CBD5BE
:101F6000FEF798FC401B0328F7D371E7B8690028F7
:101F7000206E0ED0012101432166FEF78BFC050087
:101F8000206E3040C7D1FEF785FC401B0328F7D3F5
:101F90005EE7012188432066FEF77CFC0500206E89
:101FA0003040B8D0FEF776FC401B0328F7D34FE74C
:101FB000F006E16B014008D1E16B0143E163E16BA5
:101FC00008400090009801200190844E3068C005C0
:101FD00012D4A00D00903068009901433160FEF7E3
:101FE00059FC050030680099014005D1FEF752FC0C
:101FF000401B0328F6D32BE7B9680120012905D03F
:10200000052906D1E16D04220A43E265E16D08432A
:1020100006E0E06D01218843E065E06D042188431E
:10202000E0650226B86800280CD0FEF733FC0500F6
:10203000E06D304013D1FEF72DFC401B684988420B
:10204000F6D305E7FEF726FC0500E06D304006D02C
:10205000FEF720FC401B62498842F6D3F8E601985F
:10206000002803D0E06B5F490140E16338788006C7
:1020700029D580263604F8690028206814D0710814
:1020800001432160FEF706FC0500206830401AD1AC
:10209000FEF700FC401B0328F7D3D9E600100240EE
:1020A000FFC7FFFFFF80FFFFA34901402160FEF74C
:1020B000F1FB05002068304005D0FEF7EBFB401B2C
:1020C0000328F7D3C4E6386A002857D0A16838221D
:1020D0000A40102A54D08026B60498490228206865
:1020E0003AD101402160FEF7D5FB3D000700206892
:1020F000304005D0FEF7CEFBC01B0328F7D3A7E680
:10210000E0688F490140686A0843A96A0143E86AA8
:1021100000020843296B0143686B0843A96B014324
:10212000E1602068710801432160E068F10001432B
:10213000E160FEF7AFFB0500206830401ED1FEF7DE
:10214000A9FB401B0328F7D382E600BFFFFFFEFF79
:10215000FFFFFBFF0024F40001402160FEF79AFB23
:1021600005002068304005D0FEF794FB401B032893
:10217000F7D36DE6E0689B490140E1600020FEBDB9
:10218000012822D0E0688107890F7A6A91421CD128
:1021900070210140BA6A914217D1FE21C901014064
:1021A000FA6A1202914210D1F821890301403A6B78
:1021B00091420AD1E021090501407A6B914204D194
:1021C000400F4007B96B8842D8D00120FEBD00BF48
:1021D0006000002050000020FFFEFFFF0070004064
:1021E00089130000FFFFFFEFF8B5070066D00091EC
:1021F0007D4800684007400F884218D27A4E306808
:1022000007218843009901433160FEF743FB009C9E
:10221000050030684007400FA04207D0FEF73AFBA8
:10222000401B72498842F4D30320F2BD0094396800
:10223000704D022001420CD0490704D5A968E02264
:10224000D2010A43AA60A968694A0A40B9681143E1
:10225000A9600726F6433978C90732D5796801297C
:1022600018D12868800329D5A86830400143A960A7
:10227000FEF710FB3C000700A868382101406068A9
:10228000C00081421CD0FEF705FBC01B57498842A5
:10229000F2D3C9E7022902D12868800103E00029AE
:1022A00003D128684005DFD408E0032903D12A6E52
:1022B0001040D9D102E0EA6D1040D5D10120F2BD25
:1022C00027000098484909684907490F884217D2F2
:1022D0004548006806400098304343490860FEF7CF
:1022E000D9FA009C0600404800684007400FA04211
:1022F00006D0FEF7CFFA801B3C498842F3D393E720
:102300003878400705D5A8683B490140F86808437C
:10231000A86000F017F83949AA681205120F920058
:10232000895CC906C90EC84035490860354800684F
:1023300000F0F6FAF2BD0000FFFFBFFFFFFFFFFE57
:102340008C80C11130B5072130482A4C3823A2684F
:102350001A4006D123680122DB0A19408A40110085
:102360001EE04208A5681D40082D01D1100030BDB7
:10237000A5681D40102D16D1E368E5682D09294098
:10238000491C7F259B079B0F032B00D1100000F0F9
:102390006DFAE168090A0D406843E168490F491C7C
:1023A00000F064FA30BDA0681840202802D18020D7
:1023B000000230BDA0680340182B02D1FA20C001F2
:1023C00030BD002030BD104801680D480068104A3B
:1023D0004904490F8900515CC906C90EC8407047BD
:1023E00000000000FCFFFEEE002002408913000008
:1023F000FFF0FFFF00100240FF8FFFFF382F0008A3
:102400006000002050000020081002400024F4006A
:10241000703000087047704770B4103A03D378C921
:10242000103A78C0FBD2530701D318C918C001D5A0
:1024300008C908C0D20704D30B880380891C801CFC
:10244000002A01D50B78037070BC70478B0701D14F
:102450008307E1D0124205D00B78491C0370401C61
:10246000521EF9D17047FEE708B4024B9C4608BCE7
:102470006047C04665000020F1B50F0014001D0044
:1024800042480078012801D10220F2BD01203F49D5
:10249000087000264E60FA20800000F03DF8010030
:1024A00014D1380022002B000099012902D100F03C
:1024B00061F802E01100FFF7D7FFFA20800000F07A
:1024C0002BF833490A68009B9A430A602F490E7023
:1024D000F2BD0020314980221206CB68134007D09C
:1024E0002F4B0B602F4B0B60C9680A4000D00120B6
:1024F000704710B50124FA20800000F00DF880200C
:102500000006FFE722490A6802430A60096808409A
:1025100000D00024200010BDF8B50400FEF7BAF981
:102520000027FF431C4E05003068C021890201408E
:1025300008D0BC42F8D0FEF7ADF9401BA042F3D35F
:102540000320F2BD31681348084017493160002864
:1025500003D00E4948600120F2BD3068400307D522
:10256000BC42FAD0FEF796F9401BA042F5D3E7E74C
:102570000020F2BD30B506490C68012525430D60E9
:102580000260BFF36F8F001D036030BD00040020A8
:1025900014200240FAC3000010200240082002402C
:1025A00023016745AB89EFCDFBC30800F8B584B0C4
:1025B00004000E00FF27FF00002000F038F8002183
:1025C000C943884202D1062005B0F0BD69460C819E
:1025D00003900398C01903C84CA20CCA994201D1B8
:1025E00090420DD000221B0C0B40009201936A46D2
:1025F00013890022009C019D9D4201D1944203D089
:10260000083F082FE5D203E0080C30800020DBE70C
:102610000720D9E738B505000C0000F049F80C2870
:1026200004D100222100280000F074F832BDF0B57A
:1026300004007248C0C872480CC808386F49012CA1
:1026400014D1002B07D1002A05D1184A9F422BD163
:10265000964229D11DE0002F22D1002E20D1134C0B
:102660000025AB4215D1A2421ED012E0250008D1B0
:10267000002F01D1002E0CD0002B11D1002A13D035
:102680000EE0022C0CD121A430CCAF4203D1A642E3
:1026900001D10800F0BDAB4205D1A24203D1F0BD8B
:1026A0000020C043F0BD2046F0BD0000AAAAAAAA9F
:1026B000FEB505000C0008260120FFF7B8FF002139
:1026C000C943884201D10620FEBD0700B81903C8DE
:1026D0000EA20CCA994201D1904205D00836802042
:1026E00000018642F2D30FE0019600972A002004F1
:1026F000024313000022019979180120FFF7BCFE64
:10270000002802D00520FEBD0C20FEBDFFFFFFFF0C
:10271000FFFFFFFFF8B584B007000C001500002094
:102720000390FFF784FF02900026F643B04209D0E1
:10273000280001D1022000E00120FFF778FF01907E
:10274000B04201D1062056E0002D07D12D4A0023CA
:1027500001460120FFF790FE00284BD121003800F0
:10276000FFF7A6FF002845D1039C274861004518C4
:102770002888B8420BD06946FFF718FF002806D119
:10278000684601882888FFF793FF002832D1641C2F
:10279000232CEAD31D480068C021890408420DD0CB
:1027A000014080204004814203D119480068800222
:1027B00004D5184800684002174A03E0154800682D
:1027C0008002164A02400298F821090640181100BA
:1027D00000F04CF8C80A042100F022F8002801D0CB
:1027E000032008E00022002301990120FFF744FEA6
:1027F000002800D0052005B0F0BD000000F0010861
:1028000000F80108AAAAAAAA000000200075FF1F6C
:1028100020200240E075FF1F00FE070000FC0F00B3
:1028200000B585B002220192012204920390029128
:10283000694601A800F08EFA002800D0032005B0F8
:1028400000BDFEE7CA0F00D0494203105A400DD028
:1028500004B500D3404200F009F8009AD20701D332
:102860004942124200D5404204BD0000094214D042
:1028700088420FD30122030C01D10004120400236B
:1028800000185B418B4200D35B1A5241F8D3190008
:102890001000704701000020704708B500F0BEFA34
:1028A00008BD12422DD0994231D970B500251B4286
:1028B00009D00C00002112E01100FFF7D7FF0A0039
:1028C0000021002370BD0942F6D0002401264918DA
:1028D0006441944200D3A41A7641F8D33100012612
:1028E00001E0764109D2001864416D41A41A9D416E
:1028F000F7D2A4185D41B619F5D3300022002B00A1
:1029000070BD1B42CFD108B500F08AFA08BD01D1D5
:102910009042CAD202000B00002100207047FEE75F
:1029200070B5060000240F4D2978002916D0FA2032
:102930008000FFF79BFF01000B480068FFF796FF40
:1029400000F092FA002809D1042E07D200223100AB
:102950000020C04300F083FAAE6000E001242000B4
:1029600070BD00BF480000206000002080B50B480B
:10297000012142680A434260426811400091009977
:102980008021490502680A43026000680140009105
:102990000098C020C000FEF71BFD01BD3C100240A6
:1029A00030B5010084310A78012A01D1022030BDFE
:1029B00001220A7024224A60026813681468012503
:1029C000AC43146000224266224C1C400068046044
:1029D000202048600A70002030BD70B5040025003A
:1029E00084352878012801D1022070BD012028708B
:1029F0002420686020680668026801239A43026008
:102A000020688268D200D208114317E070B5040034
:102A1000250084352878012801D1022070BD0120CD
:102A200028702420686020680668026801239A43A1
:102A3000026020688268084B1340194381602000BF
:102A400000F00CF8206806602020686000202870E4
:102A500070BD0000FFFFFFDFFFFFFFF1F8B50400CE
:102A6000606E002802D10120012517E020688168EE
:102A70000901490F00918068410F00BF0CA600BFFB
:102A800009A7785CC000715CFFF7DCFE05000098C8
:102A9000385CC0000099715CFFF7D4FE21006831FA
:102AA0004D800880F1BD0000010101030701000015
:102AB0000804020408010101F8B584B004000020F4
:102AC0006A461070964D022103912168890357D5FB
:102AD000019080204005296B014008D1296B0143FA
:102AE0002963296B08400190019801200190A80DED
:102AF00002908C4F3868029901433960FDF7CAFE95
:102B0000060038680299014008D1FDF7C3FE801B1A
:102B10000328F6D30320694608702AE0296DC020F7
:102B200080000840804F00280ED0216C88420BD0D6
:102B3000286D3840296D802252020A432A65296D8A
:102B40007A4A0A402A652865C0070DD5FDF7A2FE1E
:102B50000600286D0399014006D1FDF79BFE801BFE
:102B600073498842F5D3D5E7286D0740206C384378
:102B700028650198002803D0286B6E49014029631D
:102B80002078C00705D5A86C0321884361680143FC
:102B9000A96420680399014005D0A86C0C218843E2
:102BA000A1680143A9642078400705D5A86C3021AD
:102BB0008843E1680143A9642078C00605D5A86C64
:102BC0005D49014020690843A86457482168C90449
:102BD00004D5A96C014062690A43AA642168890589
:102BE00005D5A96C554A0A40A16A1143A964216818
:102BF000490505D5A96C524A0A40E16A1143A96406
:102C000050492278920604D5AA6C0A40A36913435E
:102C1000AB642278520605D5AA6C4B4B1340E2698F
:102C20001A43AA64226852040ED5AA6C9200920834
:102C3000236B1343AB64226B8023DB059A4203D1E1
:102C40002A689B0B13432B602268120305D5AA6CDC
:102C500040239A43636B1343AB648022520493086E
:102C60002668B6020BD5AE6C384F3740A66B3E4394
:102C7000AE64A66B9E4202D12E6816432E60266873
:102C800033400BD0AB6C324E1E40E36B3343AB642E
:102C9000E36B934202D12B6813432B60130A26681F
:102CA00036050BD5EE6C0327BE43276A3743EF6426
:102CB000266A012E02D12E681E432E602668B604B5
:102CC0000BD5EE6C0C27BE43676A3743EF64666A28
:102CD000042E02D12E6833432B60236813400BD09F
:102CE000EB6C1940636C0B43EB64616CD30A994243
:102CF00002D1296811432960216889010BD5E96C4B
:102D00000840A16C0143E964A06C110C884202D117
:102D1000286802432A606846007805B0F0BD0000CC
:102D20000C10024000700040FFFCFFFFFFFFFEFFA1
:102D300089130000FFFFFFEFFFF3FFFFFFFFF3FF2B
:102D4000FFFFCFFFFFCFFFFFFF3FFFFFFFFFBFFFF3
:102D5000FFFFFFFEF8B504000F00204800780128AF
:102D600001D10220F2BD01201C49087000254D60F0
:102D7000FA208000FFF7D0FB01002CD12168042944
:102D80000CD11748016862680A4380214902114347
:102D90000160FA208000FFF7BFFB1CE00021C9435F
:102DA0003960A16826000C0000E0641CB168F2687C
:102DB00089188C420AD22100706800F013F8FA20BA
:102DC0008000FFF7A9FB0100EFD03C6004490A68CE
:102DD00002239A430A6001490D70F2BD00040020ED
:102DE0001420024010B5094A1468094B23400428F6
:102DF00003D080208001184301E006481840C90034
:102E0000014305480843106010BD00001420024033
:102E100007E0FFFFFFDFFFFF020001007047FEE752
:102E20007047FEE710B5C30018221A40FF249440F3
:102E3000E3438907090E9140020004D41448920824
:102E40009200801806E0134A0007000F0838800837
:102E500080001018026813401943016010BD80B54E
:102E6000FFF7E0FF01BD000010B5401E80214904BE
:102E7000884201D3012010BD074C6060032100206F
:102E8000C043FFF7CFFF0020A0600721216010BDE5
:102E900000E400E01CED00E010E000E001000200B2
:102EA00003000400050006000700080009000A00EE
:102EB0000B000C000D000E000F001000110012009E
:102EC00013001400150016001700180019001A004E
:102ED0001B001C001D001E001F00200021002200FE
:102EE00023000000010000000000000004000000BA
:102EF0000020000000000000000000000024F4009A
:102F000030B50C4A53688024E4021C435460EFF34C
:102F1000108372B640240D680560091D001D641EF3
:102F2000F9D11068C02189020140FAD183F31088D9
:102F300030BD00BF10200240000000000000000073
:102F40000000000000000000000000000000000081
:102F5000000000000000000001000000020000006E
:102F6000030000000400000006000000070000004D
:102F7000080000000900000070B40121002213E0E5
:102F80000368001D0B4202D04D46EB185B1E1A6011
:102F90001B1D241F042CFAD21D00A60701D51A8080
:102FA000AD1C0C4000D02A700468001D002CE7D135
:102FB00070BC704730B401210EE00368C318446848
:102FC00008300C4202D04D462C19641E1D68256045
:102FD0001B1D241D121FF9D10268001D002AECD10F
:102FE00030BC7047FEE7FEE77047704780B500F0E1
:102FF00011F801BD80B50420FDF727FE01BD80B5A5
:1030000080208001FDF721FE80204000FDF71DFE9D
:1030100001BDFEE7024841680278891841607047A7
:103020004800002010B5074979441831064C7C440B
:10303000163404E0081D0A68891888470100A14277
:10304000F8D110BD08000000280000002DFFFFFF90
:10305000880300009C0000200000000059FFFFFFD3
:103060009C00000038FEFFFF000000200000000070
:103070000000000000000000000000000000000050
:103080000100000002000000030000000400000036
:1030900000F00DF8002801D0FFF7C4FF00BF00BF0B
:1030A000002000BF00BFFDF725FC00F002F8012062
:1030B000704780B500F002F801BDFEE707463846CC
:1030C00000F002F8FBE7FEE780B500BF00BF024A50
:1030D00011001820ABBEFBE72600020005480146A0
:1030E00003B4684680F3098800BF00BF00BF00BF7B
:1030F000FFF7CEFFA5EDF5FE0148804701480047E8
:1031000031310008DD300008FEE7FEE7FEE7FEE7AC
:10311000FEE7FEE7FEE7FEE7FEE7FEE7FEE7FEE787
:10312000FEE7FEE7FEE7FEE7FEE7FEE7FEE7FEE777
:023130007047E6
:04000005080030DDE2
:00000001FF
