:020000040800F2
:10000000480500205D3A0008FD380008FF38000868
:1000100000000000000000000000000000000000E0
:10002000000000000000000000000000013900088E
:100030000000000000000000033900080539000836
:10004000B7100008CF1000086F12000883170008CF
:10005000871700088B1700080D39000817390008AA
:1000600037380008333A00083F3A00086D3A000874
:100070006F3A0008713A0008733A0008753A0008B0
:10008000773A0008793A00087B3A00087D3A000880
:100090007F3A0008813A0008833A0008853A000850
:1000A000873A0008893A00088B3A00088D3A000820
:1000B0008F3A0008913A0008933A00080100202086
:1000C00008437047FDB5B2B03A98049102A93B22AB
:1000D000885400200D9027A8401C31900DE0049812
:1000E000329A90470490002801D100F0D3FE0D9879
:1000F000401C0D903398401C3390339801780029B0
:100100000FD02529EBD100200790089009900A9084
:100110000B900C9002250121149108211291339C1F
:1001200005E00D9800F0B8FE010014980843641C27
:1001300021782029F8D023290BD02B2904D02D2970
:1001400004D0302908D00AE02843F0E70100042059
:10015000ECE701000820E9E701001020E6E72A2982
:100160000FD134990A681168121D349B1A600F91DF
:10017000002904D54A420F92010004200843641C60
:1001800012E000210F91644B09E00F99994205DAC2
:100190008E0071184900891830390F91641C22783B
:1001A000110030390A29F0D321782E2903D00021FB
:1001B000C9430E9126E0641C21782A2908D134997C
:1001C0000A681168121D349B1A600E91641C19E0B4
:1001D0002D2901D1641C00E0002100220E920CE0C8
:1001E000002909D10E9A4C4EB24205DA9600B21897
:1001F0005200D218303A0E92641C23781A00303A1A
:100200000A2AEDD302A908872678310040487844AD
:10021000FF30401E00F01AFF002801D0641C00E0EF
:10022000002602A83A214654682E04D12078682876
:100230000BD1622005E06C2E07D120786C2804D108
:10024000712002A93A228854641C18A806902078CC
:1002500069460870601C3390684604782000253891
:1002600033D01C3800D1CDE1001F022800D8C9E1ED
:10027000133801D100F036FD093800D1C2E1801EEB
:1002800001D100F0CCFD401E01D100F079FD401EEF
:10029000022800D8B6E1001F01D100F071FD401F17
:1002A00000D109E1401E01D100F01CFD401E00D12B
:1002B000F1E0C01E0ED0801E01D100F013FDC01E63
:1002C00001D100F00FFD00F0B6FD14980790252035
:1002D00000F0ADFD349800680468001D3499086092
:1002E0000594002C00D0C2E002A83B21405C00280D
:1002F00000D1B6E00024E44306487844163000F00C
:10030000AFFE201A01D000F0C5FD00F0A2FD00BF35
:10031000BC340000F0340000CBCCCC0C01236A4686
:1003200002A9280000F072FE002801D000F0B2FD02
:10033000641EF3D13295079D18AC002D0FD0329E6C
:1003400021780498B0470490002801D100F0A2FD64
:100350000D98401C0D90641C6D1EF1D1329630201A
:10036000694608700A9C002C0DDD329D01236A4607
:1003700002A9280000F04AFE002801D000F08AFD02
:10038000641EF3D13295059C089D002D0FD0329E3E
:1003900021780498B0470490002801D100F07AFD3C
:1003A0000D98401C0D90641C6D1EF1D132963027C3
:1003B00069460F700B9C002C0DDD329D01236A46AF
:1003C00002A9280000F022FE002801D000F062FD02
:1003D000641EF3D13295059808994418099D002DA3
:1003E0000FD0329E21780498B0470490002801D1A4
:1003F00000F050FD0D98401C0D90641C6D1EF1D155
:100400003296684607700C9C002C0DDD329D01234E
:100410006A4602A9280000F0F9FD002801D000F08A
:1004200039FD641EF3D1329502A83821405C4007A3
:1004300000D462E62020694608700198002800DC9C
:100440005BE6019C329D01236A4602A9280000F068
:10045000DDFD002801D000F01DFD641EF3D13295B2
:100460004BE61B4878446830059000F0F2FC0E9D86
:10047000002D03D5200000F017FE09E02A0000211E
:10048000200000F019FE002801D0001B00E0280029
:10049000089000F0DEFC349800680268001D349972
:1004A00008600020C0430021104002AA03C218A81F
:1004B0000590782100F0AFFC02A83B21415C0029A7
:1004C00008D00024E4434B487844FF30293016E735
:1004D000503300003A21405C62286AD0682819D065
:1004E0006A2845D06C2806D071284FD0742831D0A6
:1004F0007A2821D06FE0349801680868091D349A81
:10050000116000287AD10024E4433B487844FF304E
:100510001738F4E6349801680868091D349A1160A8
:10052000002805D10024E44333487844CA30E6E685
:100530000D99018000F08DFC349801680868091D50
:10054000349A1160002859D10024E4432A487844A1
:10055000A630D4E6349801680868091D349A116001
:1005600000284BD10024E443234878448A30C6E66F
:10057000349800680268001D34990860002A13D17D
:100580000024E4431C4878446E30B8E63498006890
:100590000268001D34990860002A05D10024E44354
:1005A000154878445230AAE60D98C11703C200F0EE
:1005B00050FC349801680868091D349A11600028BD
:1005C00005D10024E4430C4878442C3097E60D997B
:1005D000017000F03EFC349801680868091D349AE7
:1005E000116000280AD10024E4430348784408300D
:1005F00085E600BFE0310000F43100000D99016094
:1006000000F027FC34980068C21D0720824334980C
:10061000026003CA349B1A6002AA03C22022C80FD8
:1006200004D007982D2118AA11540DE002A8008FBC
:10063000284204D007982B2118AA115404E0C007BF
:1006400004D5079818A90A54401C079018A80799C0
:1006500040181390059027AD02A803C816AA03C23C
:10066000684600782021014368464170612909D01D
:100670000E98002801D5062003E003D1672901D197
:1006800014980E9002A803C80F0006187F417E152B
:10069000FF17BBA20CCA9F4212D1964210D1090388
:1006A000020D11430003002901D1002808D00320C6
:1006B0000890613C1A2C19D3244979448E3110E0FA
:1006C00002A803C8080041004915994212D100034D
:1006D00010D103200890613C1A2C21D31C49794485
:1006E0006E310322139800F00DFDB2E319497944ED
:1006F0006231F6E701AA02A803C800F010FD02AAC1
:1007000003C268464078612813D1059830210170F2
:10071000811C059169460978612905D1782104E099
:100720000D4979443231DCE7582141700798801C2B
:10073000079002A803C894A20CCA02400B400DD136
:10074000002A0BD10024002669E100BFDC30000044
:10075000E0300000D0300000D4300000684640781F
:10076000612800D097E00E98002801D5212000E0F4
:10077000401C1390139F7F1C16A803C8002200235F
:1007800000F0E2FC02A830C802D2802000064540FA
:100790000198001F01909C2169440A7027A8461CFB
:1007A000002F31DD20002900002280235B0300F0B0
:1007B000E4FC29D81C2200F0F9FC04000D0000F034
:1007C0002DFD1590FF1F002F09DD00F061FD0200D7
:1007D0000B002000290000F0C2FD04000D00F01DF8
:1007E0000722159900290ADD521E08D4401E0B0766
:1007F0001B0F03700911F5E7401E00210170521E06
:10080000FAD5C61D002FCDDC27A83199711A27AA69
:10081000551C139A0C00914200DD1400002C33D4B7
:100820008C4205DA411C095D082901DB0F2100E03B
:100830000021220027AB9B1801E0641E5B1E521EA4
:100840001E788E42F9D00F2904D1411C895C491CC5
:10085000401C8154002A04D527AD641C0198001D5A
:100860000190611E10D46A186846007813783033FE
:10087000DEB23A2E01DBC318C6331370491E521E76
:100880000029F3D5694608700E98002800D4C5E009
:10089000601E0E90C2E016A830C86D006D08019869
:1008A0006C4948436C4900F0D1FD01900720019943
:1008B000401A002805DD02002000290000F080FB1E
:1008C0000AE042420020664900F07AFB02000B0079
:1008D0002000290000F0E9FD6A465278662A02D11C
:1008E000019A0A3200E006220E9B9A18142A00DDB3
:1008F000142227AB30241C705C1C02E016A803C82D
:10090000139A002A44DD16AB03C3139216A803C83A
:1009100000F096FC159005460834042628000A21AC
:1009200000F0A8FD0F0028000A2100F0A3FD05003B
:100930003037601E077028000A2100F09BFD0F0071
:1009400028000A2100F096FD0500A41E303727700C
:10095000761EE3D108341398083813900028CDDDB3
:10096000159800F085FC02000B0016A803C800F0E3
:10097000F6FC00223B4B00F0F9FD16AA03C2C5E7C6
:10098000FFFFFFFFFFFFFFFFFFFFFFFFFFFFFF7FF7
:100990003198201A27A94D1C04E0401E0199491ED8
:1009A00001916D1C29783029F7D020216A461278F0
:1009B00011436A46517069464978662902D1019906
:1009C000491C06E069464978652901D1149900E07F
:1009D00000210E9A5418A04200DA441E002C1DD4A7
:1009E000844204DA285D342801DD392000E030201B
:1009F00021006A1E531801E0641E5B1E491E1E780A
:100A00008642F9D0392802D1685C401C685400291C
:100A100004D51500641C0198401C0190019E13959B
:100A2000684600786946887000F062FE406A007887
:100A3000694608700E9D20B2002804DC149C07480B
:100A40007844183013906846407866280CD1761C9C
:100A500024E000BF97750000A0860100D82D00009B
:100A60000000F03F84D7974168464078672846D118
:100A700030B20321C943884247DBA84245DA761CDD
:100A800002A8008F1299C0B2084203D120B2A84236
:100A900000DC050030B22D1A00D5002537B2002F3A
:100AA00000DDBAE00898411C08913021059A1154E4
:100AB000002D05DC02A8008F1299C0B2084206D0B2
:100AC0000898411C089169460978059A11547842A2
:100AD000854200DA6E4236B270420B90AD1920B2F8
:100AE000854200DA2C0024B209942200139905985B
:100AF000089BC01800F006FB281B0C90DAE0684643
:100B00008078612818D170201BE020B2A84206DA54
:100B100002A9098F129AC9B2114200D105006D1EB7
:100B200000D5002568468078672802D1652069468F
:100B300007E04520694604E068468078412801D1F5
:100B4000502088700898411C089113990978059ADB
:100B500011541398411C002D05DC02A8008F129A35
:100B6000C0B2104219D00898421C08926A46127806
:100B7000059B1A54002D10DD641E20B2854200DA58
:100B80002C0022B20598089BC01800F0BBFA24B2D2
:100B9000089800190890281B0B900598089941188F
:100BA00068468078087030B2002803D42B20487043
:100BB0008F1C03E02D224A708F1C4642002412AD88
:100BC000300008E00A2100F041FC15AA03C2297098
:100BD0001598641C6D1C00B20028F3DC012C08DCA5
:100BE0006846807820210143652902D13020387081
:100BF0007F1C002C09D1302038707F1C07E0641E58
:100C000012A8005D303038707F1C002CF7DC05988E
:100C100008994018381A09904CE020B231B2884245
:100C20001DDA22B213990598089BC01800F06AFAE1
:100C300024B2089800190890391B0B91002D05DC8F
:100C400002A9098F129AC9B2114206D069460978E1
:100C5000059A11540998401C09900C952AE032B26B
:100C600013990598089BC01800F04CFA0898C01911
:100C70000890A41B002D05DC02A9098F129AC9B2A5
:100C8000114205D0411C089169460978059A115412
:100C900020B2854200DA2C0022B21398C1190598BF
:100CA000089BC01800F02EFA24B20898001908908A
:100CB000281B0B9002A83821405C14210140102908
:100CC00000D0C6E00798089940180B994018099978
:100CD00040180C9940180F99884200DBB9E0081AB7
:100CE0000A90B6E002AA3A20105C622808D0682870
:100CF0000ED06A2814D06C281DD0712810D01AE0AC
:100D0000349801680868091D349B1960C0B218E066
:100D1000349801680868091D349B196080B210E09E
:100D200034980068C31D072083433498036003CBC5
:100D3000349C236006E0349801680868091D349BE0
:100D40001960002102AB03C3108F1299C0B2084290
:100D50005BD002A803C8002901D1002855D06846FD
:100D600000782021014378294FD1079818A9302213
:100D70000A54401C421C07926A4612780A5444E006
:100D800002AA3A20105C622808D068280ED06A288F
:100D900014D06C281DD0712810D01AE03498016846
:100DA0000868091D349B196040B218E03498016846
:100DB0000868091D349B196000B210E0349800687F
:100DC000C31D072083433498036003CB349C236006
:100DD00006E0349801680868091D349B1960C11742
:100DE00002AB03C3002902DA07982D2109E0108F16
:100DF000284202D007982B2103E0C00705D50798A9
:100E0000202118AA1154401C079018A807994018CF
:100E100005906846017802A800F040F819E014989F
:100E20000790349801680868091D349A11606021A0
:100E3000694408700DE014980790252060216944EA
:100E4000087068460078002803D007956846007847
:100E500048700F980799401A0A99401A0899401A41
:100E60000B99401A0999401A0C99401A019002A84E
:100E70003821405C400701D5FFF75DFA2020694624
:100E800008700198002801DCFFF755FA019C329D9B
:100E9000FFF744FA0020C04335B0F0BDF2B586B08C
:100EA000040025696F2901D1082707E00846FFF7EC
:100EB00005F9782801D00A2700E010273C2603CC4A
:100EC000083C04AA03C26A46127E642A03D06A461A
:100ED000127E692A09D1002907DA04A803C8002272
:100EE0000023121A8B4104A80CC004A803C80029CF
:100EF0000DD100280BD1206B002808D1082F3DD13F
:100F00003820205C000739D53B26302035E002949C
:100F1000009504A830C8761E0196200029003A00EA
:100F2000002300F0EBFB3032D0B23A280DDA009803
:100F30008255200029003A00002300F0DFFB040066
:100F40000D0007D1002C05D10AE06846007E82180A
:100F5000AF32ECE70298C068009989198842DAD369
:100F6000029C009D082F09D13820205C000705D580
:100F7000A85D302802D0761E3020A8553C20801B6A
:100F8000A061A919E160216B884206DA081A206283
:100F9000208F1C490140218710E000290ED53821FF
:100FA000615C14220A40102A08D1616B6269891AB7
:100FB000226A891A081A002800DD206207B0F0BDF5
:100FC000F8B50026104F04000D00009214E0C00791
:100FD00007D532003B002000290000F0C7FA0400CA
:100FE0000D000098401000903000390032003B00A6
:100FF00000F0BCFA06000F0000980028E7D120009E
:101000002900F4BDEFFF000000002440F8B50024E3
:10101000002B11D007000E0014001D002178B068CD
:10102000B847B060002809D0F06A401CF062002088
:10103000641C6D1EF2D104002000F2BD0020C043EC
:10104000F9E70268531C036011707047C9B2027857
:101050008A4203D0401C002AF9D1002070472E009C
:1010600080B5002801D100BF07A006490B68002BFE
:1010700003D022220021984701E000F07DFB2220CE
:1010800002BD000040010020636F6E7374726169DD
:101090006E742068616E646C65723A2062616420CF
:1010A0006D65737361676500431C0178401C0942DC
:1010B000FBD1C01A7047FEE7C9B2521E05D30378B0
:1010C000401C8B42F9D1401E704700207047FEE75C
:1010D00070B4103A03D378C9103A78C0FBD25307E2
:1010E00001D318C918C001D508C908C0D20704D354
:1010F0000B880380891C801C002A01D50B780370A3
:1011000070BC70478B0701D18307E1D0124205D034
:101110000B78491C0370401C521EF9D1704710B562
:10112000144600F002F8226010BD4A0053155B1C03
:1011300008D0520D06D003231B02FE3AD21A130523
:10114000C91A70470022704730B4012464054D006D
:10115000EC420BD85D00EC4208D80C001C43640044
:101160000443144304D2994200D1904230BC7047EA
:10117000FCD08B42FAD18242F8E730B401246405F6
:101180004D00EC420BD85D00EC4208D80C001C432B
:1011900064000443144304D28B4200D1824230BC29
:1011A0007047FCD09942FAD19042F8E7124217D426
:1011B0000023DB435B0D9C464B005B0D06D0634573
:1011C00004D09B18634502D2120589187047624605
:1011D000090D11430905002000B500BF00BF00BD87
:1011E00052424B005B0DF1D05B1C5B05EED25B0DF8
:1011F000934102D91205891A70470BD10B031B13B7
:10120000C90FC907821C002043411343E4D91205CA
:101210001143E1E7C90FC9070020DDE7F4464A188A
:1012200005D200F00FF801D580174008604700F0A4
:1012300009F80121C907884200D9080040426047E7
:101240004A1812D2400DC90208430121C9070843B8
:10125000520D40210901521A521C06D452421F322B
:1012600001D4D0407047C017704700207047FEE798
:10127000010042221201D21E004207D002D4521EA7
:101280000018FCD5C10A40051205891870470000F6
:101290000100EED54042F446FFF7EBFF0122D207F2
:1012A000114360478B4200D1824205D98446100029
:1012B00062468C4619006346DF184C18640D7F0D9A
:1012C0003AD0661C760537D0E61B352E34DCDB02BF
:1012D0002B43DB0A0C0DC9022943C912202E0DDB5A
:1012E0001700203E06D01F00F741F3405F40002664
:1012F000012A7741C01871410DD217E01700F7415C
:10130000F2405740F3415A40B340F3405A40002660
:10131000801859410AD3A21C52050FD0C207012FD1
:10132000724117004008CB0718434908641C240584
:101330004208AF4170416141F0BC7047641C210517
:101340000020F9E76B4010E06B40ABE7F742F3D1C8
:10135000E943F1E72442EFD100200021ECE7F0B4AB
:101360000125ED070F005F40EED40C00871A9C4169
:1013700005D2C01BA141D219634169406B40AE0A3E
:10138000DF184C18F442E1D2640D7F0DE2D0E61B69
:10139000362ED1DCDB022B43DB0AA4460C0DC9023E
:1013A0002943C90A012E28DC04D1D6075208DF07D9
:1013B0003A435B08EF0A76429041994114D0394292
:1013C0003BD1B61940414941761C394204D1761CC3
:1013D000001849413942FAD0B9436746B74208D9A3
:1013E000A41B24052143A7E70042EAD13642E8D1F5
:1013F000A2E7E40AE10700209EE7202E0BDD203E55
:101400001F00F340F7415F40012A002257417E420E
:10141000984191410BE01700F741F2405740F341EA
:101420005A40B340F3405A407E42904199410A03EA
:1014300003D2641EB619404149410027641E2405A9
:101440004208AE4178416141F0BC7047CA0F00D0FC
:10145000494203105A400DD004B500D3404200F079
:1014600009F8009AD20701D34942124200D54042FE
:1014700004BD0000094214D088420FD30122030C9E
:1014800001D100041204002300185B418B4200D3F9
:101490005B1A5241F8D31900100070470100002078
:1014A000704708B500F06EF908BDF0B40E005E405C
:1014B0000125ED072E40B446AE0ADF184C18F44261
:1014C0003BD2F74241D2640D43D07F0D38D0E41BAC
:1014D000C902DB0229432B43CF0ADB0A0600B61AF6
:1014E0009F4104D2641EB6197F41B6185F4168124D
:1014F000800D24180018844222DCE80C0021B61963
:101500007F41B61A9F4102D2B6185F413F1C40414D
:101510004941F4D3241C21DD2405B6197F41B61AB4
:101520009F4105D33743C60737430026012F70413B
:10153000614166463143F0BC7047FCD1F74205D2A9
:101540000020C14349054908F3E704D00020C14306
:10155000F1E77F0DFAD000206146ECE72442FAD192
:10156000401C61410F03F6D30020E2E7F0B50E0006
:101570005E400125ED072E40B446AE0ADF184C1838
:10158000F44208D2F7420ED2640D01D07F0D12D181
:1015900000206146F0BD05D1F74201D87F0D05D18D
:1015A0000020C143F0BDFBD1640DF9D00020C14340
:1015B000490549088FE0E419C902DB0229432B439E
:1015C000DB0A460DC00231438E4630B487B295B275
:1015D0007D432E0CADB2140C7C43A419260C2404BC
:1015E00025439CB27C43A419190C7943270CC919D3
:1015F000A4B20F043C43090C000C97B247432E0CD5
:10160000BE193543ADB2170C4743360CBF19A6B20D
:10161000BF193E043543240C3E0C36199FB2474394
:10162000BF19BCB23E0C89191F0C47437F183E04FA
:101630003443390C704680B297B247432E0CBE1922
:101640003543ADB2170C4743360CBF19A6B2BF19CC
:101650003E043543240C3E0C36199FB24743BF1954
:10166000BCB23E0C89191F0C47437F183E0434431B
:10167000390C77463F0C90B278432E0C8019060443
:10168000ADB22E43050CA0B22D18120C7A4350199E
:10169000020C80B2240CA4189AB27A4312191404D2
:1016A0002043120C89181B0C7B43C91830BCEF0A6D
:1016B000394203D1B61940414941641E6F12BF0D32
:1016C000E41B0BDBFF19BC4211DA2405002742089A
:1016D000AE417841614166463143F0BD641C05D19D
:1016E000401C6141CF0201D34908F4E750E75DE7B0
:1016F00001487047000000001000002012422DD069
:10170000994231D970B500251B4209D00C00002147
:1017100012E01100FFF7AEFE0A000021002370BDA9
:101720000942F6D00024012649186441944200D3AE
:10173000A41A7641F8D33100012601E0764109D29E
:10174000001864416D41A41A9D41F7D2A4185D416F
:10175000B619F5D3300022002B0070BD1B42CFD14B
:1017600008B500F011F808BD01D19042CAD20200BC
:101770000B0000210020704780B5012000F006F822
:1017800001BDFEE77047FEE77047FEE780B500BF8A
:1017900000BF024A11001820ABBEFBE72600020082
:1017A000F8B5040001D10120F2BD82277F00002599
:1017B000606A002804D16068B84203D0E56101E0A6
:1017C00025616561A56226005C367078002803D12A
:1017D0003570200000F09FFB0220707020680168C7
:1017E000402291430160E368E022D200F020000132
:1017F000934203D90021834204D104E080214901AE
:10180000934200D0A562012263681F40BC46A768CE
:1018100084231B023B4067463B439C46277C0223B4
:101820001F4063461F43636913403B439C46A769BF
:1018300053021F4063461F43BC46277F38233B406B
:1018400067463B439C462023E75C80231F4063465A
:101850001F43BC46A76A53031F4063461F432368C8
:101860001F60A3691B0C04273B409C462423E75CB4
:1018700010231F4063461F43BC463423E75C082304
:101880001F4063461F43E368184038430143206804
:1018900041602068C169754B0B40C361756072700F
:1018A0000020F2BDFCB583B004000E0000274430D8
:1018B000007E012801D10220D6E015000120210080
:1018C0004431087600F05AFB029028002100443190
:1018D000497E012901D00227C1E0002E00D0290055
:1018E00000D1B8E0032122004432517600212200C9
:1018F0004432D161A663A587E58721644422A152C1
:1019000022004432518022004432D160220044320D
:101910009160A16880221202914209D121680A686F
:1019200040239A430A6021680A681B0213430B6034
:10193000216840220B68134002D10B681A430A60E9
:1019400061680022D2430192120C6B461A80049DFA
:10195000E268474B9A4234D3002901D001280BD1C9
:10196000A06B00882168C860A06B801CA063E08F1A
:10197000694609884018E087029E0AE0A16B098841
:10198000C160A06B801CA063E08F69460988401885
:10199000E087E08F002844D0206881688907EDD473
:1019A00000F0ECFA801BA84208D301988542F0D0E1
:1019B0000327012021004431487650E0002DE8D172
:1019C000F6E7002901D001280BD1A06B007821682F
:1019D0000873A06B401CA063E08F6946098840181B
:1019E000E087029E0AE0A16B09780173A06B401C9E
:1019F000A063E08F694609884018E087E08F0028DF
:101A00000FD0206881688907EDD400F0B7FA801BF9
:101A1000A84203D301988542CAD1EFE7002DEDD14A
:101A2000C6E729003200200000F02EFA002803D07B
:101A3000202021004431C861A068002806D1009010
:101A40002068C168009180680090009820004430B0
:101A5000C169002901D0012701E001214176002060
:101A6000210044310876380005B0F0BDFFF7FFFFD4
:101A700001070000F2B584B00400170001200390B4
:101A800000206946087020004430007E012801D102
:101A9000022011E11D000126210044310E7600F0E4
:101AA0006DFA029020004430417E280001290BD0BD
:101AB000626882235B009A4204D1A268002A01D1A5
:101AC000042901D00220EAE00499002903D0002F64
:101AD00001D02A0002D168460670E7E023004433B3
:101AE0005A7E042A01D005225A760022DA61276440
:101AF0005D801D80A163E587A5879A60DA60216813
:101B00006E4AE36893424B6804D3014D1D4003E0E5
:101B1000FFEFFFFF35031D434D60216840230D6833
:101B20001D4002D10D682B430B60636800210191B9
:101B30000A99E56895424ED3002B01D0012809D1BE
:101B4000A06B00882268D060A06B801CA063E08F2F
:101B5000401EE0870A91039E029DE08F002804D179
:101B600020004430408800284DD0206854498268C5
:101B700092070ED5E28F002A0BD0002E09D0A26B5F
:101B80001288C260A06B801CA063E08F4018E087C1
:101B9000019E20688268D2070ED522004432538805
:101BA000002B09D0C068236C1880206C801C206436
:101BB000508840185080012600F0E0F9401B0A9937
:101BC0008842CAD308460021C9438842C5D00320B1
:101BD0006946087066E0002B01D0012809D1A06B8E
:101BE000007822681073A06B401CA063E08F401E39
:101BF000E0870A91039E029DE08F002804D1200017
:101C000044304088002836D020682D4A81688907F2
:101C10000ED5E18F00290BD0002E09D0A16B0978D9
:101C20000173A06B401CA063E08F8018E087019EC9
:101C30002068012183680B400ED0230044335F8865
:101C4000002F09D0007B266C3070206C401C206473
:101C5000588880185880012600F090F9401B0A9996
:101C60008842084604D30021C9438842AFD1C3E764
:101C70000028C1D1ABE70A992A00200000F004F93E
:101C8000002806D001206946087020202100443138
:101C9000C86120004430C069002803D00120694693
:101CA000087003E001202100443148760020210023
:101CB000443108766846007805B0F0BD01070000A1
:101CC000FFFF0000FEB582B004000A9D1E4600F032
:101CD00055F9301A471900F051F969490968490165
:101CE000090D7943009100250126019006E0009836
:101CF000002800D100270098401E009020688068CE
:101D0000029901400298814201D1012000E00020A7
:101D10006946097B884235D004980021C94388422E
:101D2000ECD000F02BF90199401AB84201D2002FF3
:101D3000DDD120684168E0229143416060688221E2
:101D4000490088420BD1A068F103884202D04909BA
:101D5000884204D1206801684022914301607003E9
:101D6000A16A814208D121680A68464B13400B6082
:101D700021680A681043086020005C3046700570D6
:101D8000032000E0002005B0F0BDFCB585B00700E1
:101D90000E000C9C002500206946087006990091F1
:101DA00000F0ECF80099081A0019009000F0E6F82D
:101DB00039680C31009A324B1B68232463431B0D96
:101DC0005A4301923C000296059F009E04900391A5
:101DD00006E00198002800D100260198401E0190DD
:101DE0002068806802990140B94245D00298C0211C
:101DF000C900884207D1002F05D1039800786946B1
:101E000008706846007806980021C9438842E7D0E8
:101E100000F0B4F80499401AB04201D2002ED8D193
:101E200020684168E0229143416060688221490056
:101E300088420CD1A06880210902884202D0490959
:101E4000884204D1206801684022914301608020CB
:101E50008001A16A814208D121680A68094B1340B8
:101E60000B6021680A681043086020005C30012183
:101E700041700570032000E0002007B0F0BD0000B5
:101E80000C000020FFDFFFFFF8B504000F00160074
:101E9000202500963B000022C0214901FFF775FF75
:101EA000002812D100963B00002280212000FFF77D
:101EB00009FF002809D100963B000022C021C9007B
:101EC0002000FFF762FF002803D0206E054325663F
:101ED0000320F2BD80B526482649016082214900D1
:101EE000416000218160E022D200C2600161416155
:101EF000802292008261C161016241628162072297
:101F0000C262016308214163FFF74AFC002801D047
:101F100000F008F901BD10B586B0040014210022BC
:101F200001A800F01BF92068124988421DD112480F
:101F3000810CC2680A43C260C268114000910099D6
:101F4000012102680A430260006801400091009884
:101F5000C22001900220029000200390049005907E
:101F600001A9A020C00500F0FFF806B010BD0000D8
:101F7000DC0000200030014034100240014840687D
:101F8000704700BF0000002010B50400FFF78CF878
:101F90000023DB4382B22100474800F0F7F910BD6F
:101FA0000121464800F093F901BD80B500220221CD
:101FB000F7E780B501220221F3E7E0B501A9891C0A
:101FC00000220A804006400E69468871FFF7EDFF47
:101FD0000020C0430090022301AA01A9891C3848AF
:101FE000FFF748FDFFF7E5FF01A840780EBD80B57B
:101FF0006A468023034313705170FFF7D6FF002316
:10200000DB43022269462E48FFF74CFCFFF7D1FF65
:1020100001BD00001CB501A8801C00BF42A10A88B8
:102020000280264C00220121200000F050F90020FF
:10203000C0430090022301AA01A9891C2048FFF790
:1020400019FD01220121200000F041F901A840788A
:1020500016BD000010B59AB000F0B4FC00F034F8E2
:1020600000F0D0FCFFF736FF00F054FD1548FFF7F5
:102070008BFF49210120FFF7BAFF0A2000F0BCFDC9
:102080000120FFF79AFF020028A10DA800F0C8FD6B
:102090000DA8FFF779FF00BF2AA4FFF7BBFF0200DE
:1020A0002100684600F0BCFD6846FFF76DFFFA208E
:1020B000800000F0A1FDF0E748000020000400507F
:1020C000DC0000207039000818B593B03C2104A84A
:1020D00000F042F8684600210022002300241EC0C0
:1020E0008020800000F0BCFD02200490FE300790AC
:1020F0000894402009900C9404A800F0D7FD002813
:1021000001D000F00FF8072000900194029403948E
:102110000021684600F0E0FF002801D000F002F83E
:1021200014B010BD72B6FEE71600000056616C6573
:102130007572206C75653A203078253032580D0A5A
:1021400000000000726573706F6E7365203A203076
:1021500078253032580D0A00002200BF094202D013
:10216000491E4254FCD17047FFB500220F23029351
:102170002DE0052603E0624EB042FAD10426AE40BF
:102180002643009C26605F4C2568DC4325404E6852
:10219000F60200D51D435B4E3560756825404F68DB
:1021A000BF0200D51D437560574D6D6825404E68D0
:1021B000B60300D51D43544E756035682C404D68FC
:1021C000ED0302D525001C002C433460521C0B6823
:1021D0001C00D4407AD0012595402B40F6D0540005
:1021E0000326A640F74301974E68B707BF0F012F9C
:1021F00003D0B607B60F022E0ED18668019F374076
:10220000CE68A6403E4386604668AE434D68EF0602
:10221000FF0F9740374347600D79AD07AD0F032D92
:1022200025D0C568019E2E408D68A5403543C56008
:102230000D79AD07AD0F022D19D1D508AD004519A7
:102240002E6A039696001C2737406E463770039E11
:10225000B446029F6E463678B7406646BE43B446E3
:102260000F696E463678B740664637432F62076877
:102270000326019D3D404F683740A7402F4307602C
:102280004C6835042540A1D0204C9508AD00641958
:102290000094009C2468D70018253D40029FAF4061
:1022A000BC43A027FF05B84201D1002667E7184FBD
:1022B000B84201D1012662E7164FB84201D1022689
:1022C0005DE7154FB84200D055E758E7FFBD002A3B
:1022D00001D0816170478162704770B504002500AC
:1022E0000E4E3068284003D03560200001F00AF817
:1022F0007068284003D07560200001F004F870BDBC
:10230000001000500018024080180240601802407F
:102310000004005000080050000C00500C1802404F
:1023200038B5040001D1012032BD2500843568682C
:10233000002803D12870200000F01DFC24206860D4
:1023400020680168012291430160A06A002802D040
:10235000200000F0D1F9200000F086F8012811D00B
:1023600020684168084A0A404260206881682A2241
:10237000914381602068016801220A4302602000C5
:1023800000F024FA32BD0000FFB7FFFFF1B584B0C2
:102390001F0006465436706B202861D10C000FD008
:1023A00068460280002A0BD0049880688021490189
:1023B000884207D104980069002803D1E00701D5BD
:1023C00001204EE00025F56321207063FFF7D6FD64
:1023D00001006846008830806846008870803A00B6
:1023E0000498806880235B01984209D104980069B1
:1023F000002805D12500049F0192029104001AE0F3
:102400002000F8E721788162641C11E001980090B7
:10241000029B00228021380000F042FA00281BD1E4
:102420003868002CEED12988C905C90D8162AD1C20
:102430007088401E708070880028E7D13800029BA9
:10244000019900910022402100F02AFA002803D1CE
:1024500020207063002004E020207063032000E04F
:10246000022005B0F0BD0000F8B5050000242B687F
:10247000186891490140A8680843296901436869BF
:102480000843E9690143196058688C490140E868CC
:1024900008435860A8698A498B4205D089498B4214
:1024A00002D00100286A08439968874A0A4010430D
:1024B0009860D86A0F218843696A0143D9628348CA
:1024C00080210902824E1022824FBB422ED13668F3
:1024D000B607B60F30D0022E36D044D3032E31D0FB
:1024E000774EB34202D0774EB34242D1002A08D091
:1024F000022A0BD0042A00D192E0082A00D192E0EF
:10250000CEE000F0D8FE002800D1CAE072496A6A25
:102510005200895AFEF7AEFF6A6851008918884256
:1025200003D31103814200D37FE0B9E06B4FBB427C
:102530000CD136680C27374070D0042F13D0082FE9
:1025400002D00C2F56D0CBE70222C9E79C4FBB42EA
:102550000BD136683027374060D0102F03D0202FA2
:10256000F2D0302FEEE70422BAE7964FBB4229D1D2
:102570000022954F5AA6EB698B426AD1002A06D0F9
:10258000022A08D0042A5FD0082A60D088E000F030
:1025900092FE002869D069680091696A4900715A01
:1025A000FEF768FF40000099490840180099FEF7BF
:1025B00061FF01001039B94272D207400007400F95
:1025C000384365E0AD4FBB42D2D0AD4FBB42CFD018
:1025D0003B4FBB4210D13668C0273F0137401DD06A
:1025E0004E09B742BFD00E09B742ADD0C026360162
:1025F000B74200D1082273E7324FBB42B9D13668E7
:10260000C027BF00374009D0CE09B742ABD08E09F2
:10261000B74299D0C026B600B74293E700225FE7E1
:1026200000F008FE6FE7080070E7070E060250088A
:102630000021801979410023FFF760F89149411882
:10264000914A91422CD223E000F0F4FDA1E708006A
:10265000A1E7002A06D0022A08D0042A1BD0082AA3
:102660001CD01DE000F027FE00281AD069680091F8
:10267000696A4900715AFEF7FDFE00994908401841
:102680000099FEF7F7FE01001039B94208D280B276
:102690002968C86005E000F0CDFDE5E70800E5E742
:1026A0000124280068300121418001800021C1609F
:1026B00001612000F2BD0000F369FFCFFFCFFFFFF3
:1026C0000080004000840040FFF4FF110024F4006B
:1026D0005410024000380140E02600080044004049
:1026E000010002000400060008000A000C001000AF
:1026F00020004000800000012821415C090706D528
:1027000001684A68614B1340826B1A434A60282172
:10271000415CC90706D501684A685D4B1340C26A2F
:102720001A434A602821415C890706D501684A6836
:10273000584B1340026B1A434A602821415C4907F9
:1027400006D501684A68544B1340426B1A434A60ED
:102750002821415CC90606D501688A684F4B1340A1
:10276000C26B1A438A602821415C890606D501683C
:102770008A68744B1340026C1A438A602821415CBA
:10278000490611D501684A686F4B1340426C1A43E1
:102790004A60426C80235B039A4205D14A686B4BC6
:1027A0001340826C1A434A602821415C090606D511
:1027B00001684A68664B1340C06C18434860704714
:1027C00000480040004C0040F0FF0000FEB506004D
:1027D000370084370024FC60FFF7D0FB01902025F0
:1027E00030680068000717D55A480090019B002206
:1027F0002904300000F054F800280DD0EFF31080C9
:10280000012181F3108831680A6880239A430A60A5
:1028100080F310887D6026E030680068400725D589
:102820004C480090019B00226904300000F038F809
:1028300000281BD0EFF31080012181F3108831684C
:102840000A68454B13400B6080F31088EFF310804B
:10285000012181F3108831688A6801239A438A60D4
:1028600080F31088BD603C700320FEBD7D60BD60BC
:10287000F46634673C700020FEBD0000005000404C
:10288000003C014000FDFFFF00FD0F00FF7FFFFF48
:10289000FFFFFDFFFFFFFEFFFFFFFBFFFFEFFFFF5F
:1028A000FEB580273F0108250026040001916846F7
:1028B000027002932068C069019901400198814229
:1028C00001D1012000E0002069460978884236D114
:1028D00008980021C9438842ECD0FFF74FFB0299CA
:1028E000401A0899814201D3002901D10320FEBD7D
:1028F000206800684007DDD501988028DAD040289C
:10290000D8D02068C0692840206803D1C069384009
:10291000D0D009E00562200000F020F820008430CB
:10292000C56006700120FEBD20680762200000F02F
:1029300015F8200084302021C1600670D6E7002001
:10294000FEBD0000FFDFFFFFFFFFEFFFFFFF9FFF68
:10295000FFFFF7FFFFFFFF01DFFEFFFF10B5EFF303
:102960001081012282F3108802681368134C1C4006
:10297000146081F31088EFF31081012282F3108834
:10298000026893680E4C1C40946081F31088C16EFD
:1029900001290BD1EFF31081012282F31088026824
:1029A00013681024A343136081F3108820218C2224
:1029B00081500021C166416710BD0000DFFEFFFFAE
:1029C000FEFFFFEF10B500240B480168820D0A439B
:1029D0000260002000F098FC002801D0012401E0F2
:1029E00000F0B8FC200010BD04490A68044B1340F5
:1029F00018430860704700000020024000000140BA
:102A0000FFF9FFFFF8B586B0142100226846FFF7F2
:102A1000A5FB04273C48016839430160016839403F
:102A200005910599016820220A430260016820226D
:102A3000114005910599016801220A43026001686D
:102A4000CA07D20F05920599016802220A43026063
:102A50000068022108400590059800222021A0204E
:102A6000C005FFF734FC002203212848FFF72FFCA4
:102A7000FE020096882464030194002502956946AD
:102A80002348FFF771FB2020009001200190029560
:102A9000022003906946A020C005FFF765FB0320D4
:102AA0000090012001900295039569461748FFF7B1
:102AB0005BFB00970194029569461448FFF754FBAD
:102AC00070090090019402956946A020C005FFF7A7
:102AD0004BFB0096842080030190029569460C48C8
:102AE000FFF742FB00220021062000F06AFC0620CE
:102AF00000F06CFC00220021072000F062FC07209F
:102B000000F064FC07B0F0BD341002400004005037
:102B10000008005010B5354C35482060E1204002D7
:102B200060600020A060E06020610C216161A06114
:102B3000E06120626062A0622000FFF7F1FB0028E4
:102B400001D0FFF7EFFA0021200000F082FC0028FE
:102B500001D0FFF7E7FA0021200000F093FC0028E5
:102B600001D0FFF7DFFA200000F056FC002801D06A
:102B7000FFF7D8FA10BD30B599B004001421002237
:102B800001A8FFF7EBFA4C21002206A8FFF7E6FAAE
:102B900020681749884226D102240694002508950A
:102BA00006A800F0C5FC002801D0FFF7BBFA1148C9
:102BB000210482680A438260826811400091009972
:102BC000012102680A4302600068084000900098F2
:102BD0000C200190029403950495059101A9A02071
:102BE000C005FFF7C1FA19B030BD00004800002051
:102BF000004400403410024038B50400FFF7BEF92D
:102C000005000020C043844202D004480078241804
:102C1000FFF7B4F9401BA042FAD331BD00000020F9
:102C20000CB418B583B004000A0006A80290019401
:102C30000020009002AB01A9084878441E30FDF73F
:102C400041FA0021019A1170002801D40198001B5B
:102C500004B0019910BC03B0084700BFE7E3FFFFD1
:102C600010B50E4C21680E4A0A4002432260610DE5
:102C7000884210D10B480068062148430A49FEF7F4
:102C8000F9FB401C00E0401E6169490503D500289E
:102C9000F9D1032010BD002010BD000000700040DD
:102CA000FFF9FFFF0C00002040420F00FEB50700B7
:102CB0001BD0B64C3878C00719D5A1683820084019
:102CC000E1688025AD02102808D18807800F03280D
:102CD00006D078686908884234D13BE00828F8D1EA
:102CE0002068054003D07868002800D1E5E13878F5
:102CF000800779D5A16838200840E168A44AA54E2C
:102D000010284CD18907890F02294AD0F868002879
:102D1000206800D193E002403869104320602068A9
:102D2000A10D01432160FFF729F93D00070020684C
:102D3000400500D57BE0FFF721F9C01B0328F6D33F
:102D40000320FEBDA022D2029042206805D18A0055
:102D5000024322602068014305E0B8490140216038
:102D60002068B74901402160786800280BD0FFF740
:102D700005F9060020682840B9D1FFF7FFF8801B4D
:102D80006528F7D3DCE7FFF7F9F80600206828404C
:102D9000ADD0FFF7F3F8801B6528F7D3D0E7002804
:102DA000B4D12168490502D5F96800293ED061688F
:102DB0000E40796909023143616000280ED1206814
:102DC00002403869104320609E4801212268920425
:102DD000520F9140FEF74EFBB9490860B9480068B0
:102DE00000F092FA002821D10226387800070AD58F
:102DF000A06838210140182930D1206E304002D01F
:102E0000B869002812D03878400700D4A6E0002026
:102E10000190A06838210140202941D1E06D064091
:102E200000D19BE0B868002800D097E045E16068D9
:102E3000064068690002304360602F00D4E7A24971
:102E400001402160FFF79AF8050020684005CBD5C6
:102E5000FFF794F8401B0328F7D371E7B8690028FF
:102E6000206E0ED0012101432166FFF787F805008F
:102E7000206E3040C7D1FFF781F8401B0328F7D3FD
:102E80005EE7012188432066FFF778F80500206E91
:102E90003040B8D0FFF772F8401B0328F7D34FE754
:102EA000F006E16B014008D1E16B0143E163E16BA6
:102EB00008400090009801200190844E3068C005C1
:102EC00012D4A00D00903068009901433160FFF7E3
:102ED00055F8050030680099014005D1FFF74EF81C
:102EE000401B0328F6D32BE7B9680120012905D040
:102EF000052906D1E16D04220A43E265E16D08432C
:102F000006E0E06D01218843E065E06D042188431F
:102F1000E0650226B86800280CD0FFF72FF80500FE
:102F2000E06D304013D1FFF729F8401B6849884213
:102F3000F6D305E7FFF722F80500E06D304006D034
:102F4000FFF71CF8401B62498842F6D3F8E6019867
:102F5000002803D0E06B5F490140E16338788006C8
:102F600029D580263604F8690028206814D0710815
:102F700001432160FFF702F80500206830401AD1B4
:102F8000FEF7FCFF401B0328F7D3D9E600100240F0
:102F9000FFC7FFFFFF80FFFFA34901402160FEF74D
:102FA000EDFF05002068304005D0FEF7E7FF401B2D
:102FB0000328F7D3C4E6386A002857D0A16838221E
:102FC0000A40102A54D08026B60498490228206866
:102FD0003AD101402160FEF7D1FF3D000700206893
:102FE000304005D0FEF7CAFFC01B0328F7D3A7E681
:102FF000E0688F490140686A0843A96A0143E86AAA
:1030000000020843296B0143686B0843A96B014325
:10301000E1602068710801432160E068F10001432C
:10302000E160FEF7ABFF0500206830401ED1FEF7DF
:10303000A5FF401B0328F7D382E600BFFFFFFEFF7A
:10304000FFFFFBFF0024F40001402160FEF796FF24
:1030500005002068304005D0FEF790FF401B032894
:10306000F7D36DE6E0689B490140E1600020FEBDBA
:10307000012822D0E0688107890F7A6A91421CD129
:1030800070210140BA6A914217D1FE21C901014065
:10309000FA6A1202914210D1F821890301403A6B79
:1030A00091420AD1E021090501407A6B914204D195
:1030B000400F4007B96B8842D8D00120FEBD00BF49
:1030C0000C00002008000020FFFEFFFF0070004001
:1030D00089130000FFFFFFEFF8B5070066D00091ED
:1030E0007D4800684007400F884218D27A4E306809
:1030F00007218843009901433160FEF73FFF009CA0
:10310000050030684007400FA04207D0FEF736FFA9
:10311000401B72498842F4D30320F2BD0094396801
:10312000704D022001420CD0490704D5A968E02265
:10313000D2010A43AA60A968694A0A40B9681143E2
:10314000A9600726F6433978C90732D5796801297D
:1031500018D12868800329D5A86830400143A960A8
:10316000FEF70CFF3C000700A868382101406068AA
:10317000C00081421CD0FEF701FFC01B57498842A6
:10318000F2D3C9E7022902D12868800103E00029AF
:1031900003D128684005DFD408E0032903D12A6E53
:1031A0001040D9D102E0EA6D1040D5D10120F2BD26
:1031B00027000098484909684907490F884217D2F3
:1031C0004548006806400098304343490860FEF7D0
:1031D000D5FE009C0600404800684007400FA04212
:1031E00006D0FEF7CBFE801B3C498842F3D393E721
:1031F0003878400705D5A8683B490140F86808437E
:10320000A86000F017F83949AA681205120F920059
:10321000895CC906C90EC840354908603548006850
:1032200000F072F8F2BD0000FFFFBFFFFFFFFFFEDE
:103230008C80C11130B5072130482A4C3823A26850
:103240001A4006D123680122DB0A19408A40110086
:103250001EE04208A5681D40082D01D1100030BDB8
:10326000A5681D40102D16D1E368E5682D09294099
:10327000491C7F259B079B0F032B00D11000FEF7F5
:10328000F9F8E168090A0D406843E168490F491CF3
:10329000FEF7F0F830BDA0681840202802D1802049
:1032A000000230BDA0680340182B02D1FA20C001F3
:1032B00030BD002030BD104801680D480068104A3C
:1032C0004904490F8900515CC906C90EC8407047BE
:1032D00000000000FCFFFEEE002002408913000009
:1032E000FFF0FFFF00100240FF8FFFFF8038000853
:1032F0000C00002008000020081002400024F40008
:10330000E83900087047704770B5060000240F4D7B
:103310002978002916D0FA208000FEF7ABF80100CA
:103320000B480068FEF7A6F800F059F8002809D10C
:10333000042E07D2002231000020C04300F041F8E3
:10334000AE6000E00124200070BD00BF000000203E
:103350000C00002080B50B48012142680A434260FE
:1033600042681140009100998021490502680A4392
:1033700002600068014000910098C020C000FFF783
:1033800033FB01BD3C10024010B5C30018221A40A7
:10339000FF249440E3438907090E9140020004D4BE
:1033A000194892089200801806E0184A0007000F9A
:1033B0000838800880001018026813401943016023
:1033C00010BD80B5FFF7E0FF01BD0000010005D48E
:1033D0000121C006C00E81400D480160704710B544
:1033E000401E80214904884201D3012010BD094CB0
:1033F000606003210020C043FFF7C6FF0020A060EB
:103400000721216010BD000000E400E01CED00E099
:1034100000E100E010E000E030B5010084310A78FE
:10342000012A01D1022030BD01220A7024224A6003
:103430000268136814680125AC43146000224266D8
:10344000224C1C4000680460202048600A70002064
:1034500030BD70B50400250084352878012801D1DD
:10346000022070BD01202870242068602068066852
:10347000026801239A43026020688268D200D20861
:10348000114317E070B50400250084352878012821
:1034900001D1022070BD01202870242068602068BE
:1034A0000668026801239A43026020688268084B1C
:1034B000134019438160200000F00CF8206806607A
:1034C000202068600020287070BD0000FFFFFFDF33
:1034D000FFFFFFF1F8B50400606E002802D1012063
:1034E000012517E0206881680901490F0091806873
:1034F000410F00BF0CA600BF09A7785CC000715C3B
:10350000FDF7A4FF05000098385CC0000099715CCD
:10351000FDF79CFF210068314D800880F1BD00005F
:103520000101010307010000080402040801010170
:10353000F8B584B0040000206A461070964D022150
:1035400003912168890357D5019080204005296B9C
:10355000014008D1296B01432963296B0840019080
:10356000019801200190A80D02908C4F38680299B3
:1035700001433960FEF702FD0600386802990140F8
:1035800008D1FEF7FBFC801B0328F6D30320694615
:1035900008702AE0296DC02080000840804F002874
:1035A0000ED0216C88420BD0286D3840296D8022C6
:1035B00052020A432A65296D7A4A0A402A6528651B
:1035C000C0070DD5FEF7DAFC0600286D039901400F
:1035D00006D1FEF7D3FC801B73498842F5D3D5E7AB
:1035E000286D0740206C384328650198002803D0D7
:1035F000286B6E49014029632078C00705D5A86C67
:103600000321884361680143A9642068039901404C
:1036100005D0A86C0C218843A1680143A9642078D7
:10362000400705D5A86C30218843E1680143A964AF
:103630002078C00605D5A86C5D4901402069084383
:10364000A86457482168C90404D5A96C014062697F
:103650000A43AA642168890505D5A96C554A0A4020
:10366000A16A1143A9642168490505D5A96C524A8C
:103670000A40E16A1143A96450492278920604D5B0
:10368000AA6C0A40A3691343AB642278520605D59D
:10369000AA6C4B4B1340E2691A43AA642268520495
:1036A0000ED5AA6C92009208236B1343AB64226B75
:1036B0008023DB059A4203D12A689B0B13432B60BE
:1036C0002268120305D5AA6C40239A43636B134307
:1036D000AB648022520493082668B6020BD5AE6C08
:1036E000384F3740A66B3E43AE64A66B9E4202D174
:1036F0002E6816432E60266833400BD0AB6C324EDA
:103700001E40E36B3343AB64E36B934202D12B68FF
:1037100013432B60130A266836050BD5EE6C03277E
:10372000BE43276A3743EF64266A012E02D12E6812
:103730001E432E602668B6040BD5EE6C0C27BE43E4
:10374000676A3743EF64666A042E02D12E683343FA
:103750002B60236813400BD0EB6C1940636C0B4358
:10376000EB64616CD30A994202D129681143296044
:10377000216889010BD5E96C0840A16C0143E9641B
:10378000A06C110C884202D1286802432A60684666
:10379000007805B0F0BD00000C1002400070004041
:1037A000FFFCFFFFFFFFFEFF89130000FFFFFFEF9D
:1037B000FFF3FFFFFFFFF3FFFFFFCFFFFFCFFFFF91
:1037C000FF3FFFFFFFFFBFFFFFFFFFFE686A6C7454
:1037D0007A4C00007072696E74665F733A20256ED1
:1037E00020646973616C6C6F776564007072696ED8
:1037F00074663A2062616420256E20617267756D7F
:10380000656E74007072696E74665F733A206261EF
:103810006420257320617267756D656E7400000009
:10382000000000006E616E004E414E00696E660041
:10383000494E46003000FEE7010000000000000095
:10384000040000000024F400963A0008963A0008AC
:10385000963A0008963A0008963A0008963A000808
:10386000963A0008FFFFFFFFFFFFFFFF5E10000812
:10387000963A0008963A0008FFFFFFFFFFFF00009E
:103880000000000000000000000000000000000038
:103890000000000000000000000000000000000028
:1038A000010000000200000003000000040000000E
:1038B00006000000070000000800000009000000EA
:1038C00070B40121002213E00368001D0B4202D0F6
:1038D0004D46EB185B1E1A601B1D241F042CFAD2E8
:1038E0001D00A60701D51A80AD1C0C4000D02A701F
:1038F0000468001D002CE7D170BC7047FEE7FEE7AE
:103900007047704780B500F013F801BD80B5042002
:10391000FEF7E3FC01BD10B58024A4012000FEF7F2
:10392000DCFC6009FEF7D9FC2000FEF7D6FC10BDD8
:103930000248416802788918416070470000002001
:1039400030B401210EE00368C318446808300C420B
:1039500002D04D462C19641E1D6825601B1D241DB8
:10396000121FF9D10268001D002AECD130BC70474B
:103970005465737420535831323131203A204C65EC
:1039800063747572652064752072656769737472FB
:103990006520307830312E2E2E0D0A0010B50749E3
:1039A00079441831064C7C44163404E0081D0A683A
:1039B000891888470100A142F8D110BD0800000015
:1039C00028000000FDFEFFFFFC0000004800002072
:1039D000000000006DFFFFFF480000005CFEFFFFDD
:1039E00000000020000000000000000000000000B7
:1039F00000000000000000000100000002000000C4
:103A0000030000000400000000F00DF8002801D0C1
:103A1000FFF7C4FF00BF00BF002000BF00BFFEF7DC
:103A200019FB00F002F80120704780B500F002F8A1
:103A300001BDFEE707463846FDF7A8FEFBE7FEE7B7
:103A40000548014603B4684680F3098800BF00BFFB
:103A500000BF00BFFFF7D8FFA5EDF5FE0148804786
:103A600001480047953A0008413A0008FEE7FEE7A2
:103A7000FEE7FEE7FEE7FEE7FEE7FEE7FEE7FEE71E
:103A8000FEE7FEE7FEE7FEE7FEE7FEE7FEE7FEE70E
:073A9000FEE7FEE7704700AE
:0400000508003A4174
:00000001FF
